:020000040800F2
:10000000F0040220E9B1020811B0020813B002089E
:1000100015B0020817B0020819B00208000000006D
:10002000000000000000000000000000F5D70108FB
:100030001BB002080000000099D70108ABA8010816
:10004000F9B20208FDB2020801B3020805B30208C2
:1000500009B302080DB3020811B3020815B3020870
:1000600019B302081DB3020821B3020825B3020820
:1000700029B302082DB3020831B3020835B30208D0
:1000800039B302083DB3020841B3020845B3020880
:1000900049B302084DB3020851B3020855B3020830
:1000A00059B302085DB3020861B3020865B30208E0
:1000B00069B302086DB3020871B3020875B3020890
:1000C00079B302087DB3020881B3020885B3020840
:1000D00089B302088DB3020891B3020895B30208F0
:1000E00099B302089DB30208A1B30208A5B30208A0
:1000F000A9B30208ADB30208B1B30208B5B3020850
:10010000B9B30208BDB30208C1B30208C5B30208FF
:10011000C9B30208CDB30208D1B30208D5B30208AF
:10012000D9B30208DDB30208E1B30208E5B302085F
:10013000E9B30208EDB30208F1B30208F5B302080F
:10014000F9B30208FDB3020801B4020805B40208BD
:1001500009B402080DB4020811B402081DB0020867
:1001600015B4020819B402081DB4020821B402082B
:1001700025B4020829B402082DB4020800000000CA
:1001800031B4020835B4020839B402083DB402089B
:1001900041B4020845B4020849B402084DB402084B
:1001A00051B4020855B40208235C020859B402088D
:1001B000E35A0208F4FF0FF4FF0FF4FF0FF3FF0FF1
:1001C000F3FF0FF2FF0EF2FF0EF2FF0EF1FF0DF143
:1001D000FF0DF0FF0CF0FF0CF0FF0CF0FF0BF0FF39
:1001E0000BE0FF0BE0FF0AD0FF0AD0FF09D0FF09A8
:1001F000C0FF0970990500000000000000000030F9
:100200003303F2FF0DF2FF0DF2FF0DF2FF0DFAFFC7
:100210000820FFFF00F9FF0610FFFF00F8FF0500B0
:10022000FFEF00F7FF0400FEDF00F6FF0300FDBF55
:1002300000F5FF0200FCAF00F3FF0100FB9F00F29E
:10024000FF0000FA8F00F1EF0000F97F00F0DF00FF
:1002500000F76F00F0CF0000F65F008069000093A8
:100260002900000000000040FF030070FF000000B4
:100270000000000080FF0000B0CF00000000000080
:1002800000C0BF0000F08F00000000000000F07F01
:100290000000F34F00000000000000F43F0000F7F2
:1002A0000F00000000000000F80F0000FB0C000031
:1002B0000000000000FC0C0000FF0800000000002F
:1002C0000000FF080030FF04000000A0BBBBCBFF14
:1002D000BCBBDBFFBBBBAB00E0FFFFFFFFFFFFFFD3
:1002E000FFFFFFEF00E0FFFFFFFFFFFFFFFFFFFF4C
:1002F000EF00000000F07F0000F24F00000000005F
:100300000000F34F0000F61F00000000000000F79F
:100310000F0000F90D00000000000000FA0C0000C2
:10032000FD0A00000000000000FE090010FF0600AA
:10033000000000000020FF050040FF020000000058
:10034000000050FF010080FF00000000000000904E
:10035000EF0000C0BF00000000F3FFFFFFFFFFFF42
:10036000FFFFFFFFAF00F3FFFFFFFFFFFFFFFFFFF8
:10037000FFAF00B2BBBBFDBFBBBBFEBFBBBB7B00C7
:10038000000000F90F0000FC0B000000000000005E
:10039000FD0B0000FF0700000000000010FF070039
:1003A00040FF0400000000000040FF030080FF0049
:1003B00000000000000080FF0000C0CF000000002F
:1003C000000000C0BF0000F08F000000000000002F
:1003D000F07F0000F34F00000000000000F43F0039
:1003E00000F70F000000000000000000F31F0000F5
:1003F000000000000000F31F0000000000000000EB
:10040000F31F0000000000000000F31F00000000C8
:1004100000000000F31F00000000000040C9FEFFC4
:10042000CE7A03000050FEFFFFFFFFFFEF0600F94A
:10043000FFFFFFFFFFFFFF0A80FFEF27F32F31D7FA
:10044000FF0AF2FF1C00F31F0000E60AF8FF02009B
:10045000F31F00000003FBEF0000F31F000000008B
:10046000FCEF0000F31F00000000FBFF0200F31F81
:1004700000000000F7FF1C00F31F00000000F1FF68
:10048000FF39F31F0000000050FFFFFFFF8F040043
:10049000000000D4FFFFFFFFFF6C00000000A4FE7F
:1004A000FFFFFFFF4E0000000020F8EFFFFFFF05F9
:1004B00000000000F31F72FEFF1F00000000F31F8A
:1004C00000C0FF6F00000000F31F0040FF9F00000E
:1004D0000000F31F0010FFAF00000000F31F00102A
:1004E000FF8F18000000F31F0050FF4FEF180000AF
:1004F000F31F00E2FF0DFFFF6B03F32F83FFFF03EA
:10050000FFFFFFFFFFFFFFFF4E00C6FFFFFFFFFFE4
:10051000FFAF01000061B9EEFFDF6A0100000000DB
:100520000000F31F0000000000000000F31F0000A7
:10053000000000000000F31F0000000000000000A9
:10054000F31F0000000000000000F31F0000000087
:1005500000000000F31F0000000000000000F31F77
:100560000000000000000000D21D0000000000009C
:10057000107567020000000000000000000000008D
:1005800000000010FAFFFFCF030000000000B0FFE2
:1005900008000000000000E2FFFFFFFF4F00000026
:1005A0000000F3FF01000000000000FCFF3763FEC5
:1005B000EF0100000000FB7F00000000000040FF92
:1005C0004F0000F2FF0700000030FF0E00000000A7
:1005D0000000A0FF0D0000A0FF0D000000B0FF070D
:1005E000000000000000D0FF09000060FF0F0000C5
:1005F00000F3EF00000000000000F0FF07000040E3
:10060000FF2F000000FC7F00000000000000F0FF52
:1006100006000030FF3F000040FF0E000000000019
:100620000000F1FF06000030FF3F0000C0FF0700A0
:10063000000000000000F0FF06000030FF3F000057
:10064000F4EF0000000000000000F0FF0800005080
:10065000FF1F0000FC6F0000000000000000C0FF52
:100660000B000080FF0E0040FF0E000000000000A5
:10067000000070FF0F0000D0FF0A00C0FF0600005E
:1006800000000000000020FFAF0000F8FF0400F4AD
:10069000EF000030DAFF9D03000000F8FFBEEBFF23
:1006A000AF0000FC6F0000F9FFFFFF9F000000801B
:1006B000FFFFFFFF0A0050FF0D0090FFEFBBFFFFA1
:1006C0000800000093FDEF4A0000D0FF0600F3FF92
:1006D0000900A0FF2F000000000000000000F5DF6F
:1006E0000000F9EF000000FE8F0000000000000095
:1006F0000000FD5F0000FE9F000000FACF00000038
:10070000000000000050FF0D0010FF6F000000F718
:10071000FF0000000000000000D0FF050020FF4F98
:10072000000000F6FF0100000000000000F5DF00FF
:100730000030FF4F000000F5FF0100000000000046
:1007400000FD5F000020FF4F000000F5FF010000EA
:100750000000000060FF0D000010FF5F000000F6C9
:10076000FF00000000000000D0FF05000000FF7F38
:10077000000000F8EF00000000000000F6CF0000CD
:100780000000FCBF000000FCAF0000000000000003
:10079000FE4F00000000F6FF020040FF5F00000077
:1007A00000000060FF0C00000000E0FF6E33F7FF68
:1007B0000D000000000000E0FF040000000030FF1A
:1007C000FFFFFFEF02000000000000F6CF00000076
:1007D000000000C3FFFFFF2B00000000000000002E
:1007E000000000000000000062771500000000001B
:1007F0000030765702000000000000000000008179
:10080000FEFFFFCF03000000000000000020FDFFFE
:10081000FFFFFF7F0000000000000000E1FF8F02EB
:1008200071FFFF0500000000000000F9FF06000056
:10083000F5FF0D00000000000000FFDF000000C019
:10084000FF2F00000000000040FF8F00000090FF1D
:100850004F00000000000050FF8F00000090FF3F9D
:1008600000000000000030FFAF000000B0FF1F00DC
:10087000000000000010FFFF010000F0FF0C00006E
:100880000000000000FAFF0B0000F8FF0500000068
:1008900000000000F2FFCF0270FF9F000000000088
:1008A00000000030FEFF8FFDFF0700304404000011
:1008B000000000C2FFFFFF2A0000A0FF2F00000081
:1008C0000000D3FFFFDF010000A0FF2F00000000A9
:1008D00060FF8FFCFF1D0000A0FF1F00000000F75D
:1008E000FF04C0FFDF0100A0FF0F00000030FF6F1A
:1008F0000000FCFF1D00B0FF0E000000C0FF0E0056
:1009000000C0FFDF01C0FF0B000000F3FF08000084
:1009100000FCFF1DD0FF07000000F7FF05000000EE
:10092000C0FFDFF2FF03000000FAFF040000000038
:10093000FCFFFFDF00000000FBFF0400000000C020
:10094000FFFF6F00000000FAFF070000000000FC3E
:10095000FF2F00000000F9FF0B0000000000E0FF87
:10096000DF01000000F4FF3F0000000000F8FFFF7F
:100970001D000000E0FFEF0200000080FFCEFFDF5F
:1009800001000060FFFF6E010060FDFF03FCFF1D22
:10099000000000F9FFFFDFDCFFFF3E00C0FFDF01CA
:1009A000000070FFFFFFFFFFCF020010FDFF1D00E2
:1009B0000000A3FFFFFFCF05000000D1FFCF010023
:1009C0000000407657010000000000000000FCFF1E
:1009D00008FBFF06F9FF05F8FF04F7FF03F6FF0227
:1009E000F5FF01F4FF00F2EF00F1DF00F0CF00901F
:1009F000690000000090FFEF01000000F5FF2E00ED
:100A0000000020FFFF02000000C0FF5F00000000A8
:100A1000F6FF0900000000FEEF0000000080FF6FFD
:100A200000000000E0FF0D00000000F6FF060000DF
:100A30000000FCEF0000000020FF9F00000000709D
:100A4000FF4F00000000B0FF0E00000000E0FF0AB2
:100A500000000000F1FF0700000000F3FF040000A9
:100A60000000F5FF0200000000F6FF01000000009A
:100A7000F6FF0000000000F7FF0000000000F6FF96
:100A80000000000000F6FF0100000000F5FF02007A
:100A9000000000F3FF0400000000F1FF0700000069
:100AA00000E0FF0A00000000B0FF0E000000007030
:100AB000FF3F0000000020FF8F0000000000FDEF5E
:100AC0000000000000F7FF0600000000F0FF0D002E
:100AD00000000080FF6F0000000010FEEF0000002B
:100AE0000000F6FF0900000000C0FF5F00000000EA
:100AF00020FFFF0200000000F5FF2E000000009024
:100B0000FFEF01C0FFBF0000000000FCFF08000075
:100B10000000E1FF4F0000000020FFEF0000000098
:100B200000F7FF0900000000C0FF2F0000000030A8
:100B3000FFAF0000000000FAFF0200000000F3FF1A
:100B40000900000000C0FF0E0000000060FF4F0021
:100B500000000010FF9F0000000000FCDF0000000C
:100B60000000F8FF0100000000F5FF030000000096
:100B7000F2FF0500000000F0FF0700000000E0FFAA
:100B80000800000000D0FF0900000000D0FF0900AD
:100B9000000000D0FF0900000000E0FF0800000096
:100BA00000F0FF0700000000F2FF0500000000F564
:100BB000FF0300000000F8FF0100000000FCDF0060
:100BC00000000010FF9F0000000060FF4F000000C9
:100BD00000C0FF0E00000000F3FF0900000000FA53
:100BE000FF0200000030FFAF00000000C0FF2F0038
:100BF000000000F7FF0900000020FFEF00000000E8
:100C0000E1FF4F00000000FCFF08000000C0FFBF34
:100C10000000000000000000F80F000000000000CD
:100C20000000F70F0000000000000000F70F0000B8
:100C30000000C0070000F70F0000C304F6DF040047
:100C4000F70E0091FF0DC3FFAF01F60E60FEFF0827
:100C500000E5FF7FF63EFCFF1A000000F7FFFFFFF4
:100C6000FF3B0000000010F9FFFF4D0000000000F6
:100C700000B1FFFF05000000000080FFFFFFCF0371
:100C800000000060FEEFFBBEFFAF020040FDFF1959
:100C9000F70EE5FF8F01F7FF3C00F70E00F8FF0E9F
:100CA000F26F0000F70F0020FB0950010000F70F62
:100CB0000000500100000000F70F000000000000DD
:100CC0000000F80F00000000000000008408000091
:100CD0000000000000000000000000000000000014
:100CE00000000000F4FF0000000000000000000011
:100CF00000F4FF0000000000000000000000F4FF0E
:100D00000000000000000000000000F4FF000000F0
:100D10000000000000000000F4FF000000000000E0
:100D20000000000000F4FF000000000000000000D0
:100D30000000F4FF0000000000000000000000F4CC
:100D4000FF0000000000000000000000F4FF0000B1
:100D5000000000000000000000F4FF0000000000A0
:100D6000003333333333F6FF333333333302FEFF91
:100D7000FFFFFFFFFFFFFFFFFFFF0AFEFFFFFFFF79
:100D8000FFFFFFFFFFFFFF0AFEFFFFFFFFFFFFFF69
:100D9000FFFFFFFF0A0000000000F4FF000000005A
:100DA00000000000000000F4FF0000000000000050
:100DB00000000000F4FF0000000000000000000040
:100DC00000F4FF0000000000000000000000F4FF3D
:100DD0000000000000000000000000F4FF00000020
:100DE0000000000000000000F4FF00000000000010
:100DF0000000000000F4FF00000000000000000000
:100E00000000F4FF0000000000000000000000F4FB
:100E1000FF0000000000000000000000F4FF0000E0
:100E2000000000000000FDFF1F0020FFFF09006020
:100E3000FFFF0200A0FFBF0000E0FF5F0000F2FF25
:100E40000E0000F6FF070000FBFF010000FFAF00EF
:100E50000030FF3F000070FF0C0000B0FF050000F5
:100E6000F0EF000000A0AAAAAAAAAA1AF0FFFFFFAA
:100E7000FFFF2FF0FFFFFFFFFF2FF0FFFFFFFFFF40
:100E80002FB0BB6BF1FF9FF1FF9FF1FF9FF1FF9F21
:100E9000F1FF9F00000000000000FD9F0000000027
:100EA000000030FF3F00000000000090FF0D000038
:100EB00000000000E0FF07000000000000F5FF0157
:100EC000000000000000FBBF00000000000010FF59
:100ED0005F00000000000060FF0F00000000000045
:100EE000C0FF09000000000000F2FF030000000046
:100EF0000000F8DF00000000000000FE8F0000008E
:100F000000000040FF2F000000000000A0FF0C00C8
:100F10000000000000F1FF06000000000000F6FFE6
:100F200000000000000000FCAF00000000000020F6
:100F3000FF4F00000000000080FF0E0000000000D6
:100F400000E0FF08000000000000F4FF02000000C5
:100F5000000000FACF00000000000000FF6F00005A
:100F60000000000060FF0F000000000000C0FF0A4A
:100F7000000000000000F2FF04000000000000F884
:100F8000EF00000000000000FD8F000000000000E6
:100F900030FF2F00000000000090FF0C0000000058
:100FA0000000F0FF06000000000000F5FF01000057
:100FB00000000000FBAF00000000000010FF4F0029
:100FC000000000000070FF0E000000000000D0FFD5
:100FD00008000000000000F3FF0200000000000015
:100FE0008478000000000000000000000064672515
:100FF00000000000000010FAFFFFFF5C000000008E
:1010000000E5FFFFFFFFFF0A00000030FFFFFFEDDC
:10101000FFFFAF000000E1FFCF040071FFFF0600FB
:1010200000F8FF0B000000F4FF0E0000FEFF0100BF
:10103000000090FF6F0040FF9F0000000020FFBFF6
:101040000090FF4F0000000000FDFF00C0FF1F00E8
:1010500000000000FAFF03F0FF0E0000000000F7A0
:10106000FF06F1FF0D0000000000F5FF08F2FF0C85
:101070000000000000F4FF0AF4FF0B000000000075
:10108000F3FF0BF4FF0A0000000000F3FF0BF5FF75
:101090000A0000000000F2FF0CF5FF0A000000004B
:1010A00000F2FF0CF4FF0A0000000000F3FF0CF454
:1010B000FF0A0000000000F3FF0BF3FF0B0000002D
:1010C0000000F4FF0AF1FF0C0000000000F5FF082B
:1010D000F0FF0E0000000000F7FF06C0FF1F000039
:1010E000000000FAFF0490FF4F0000000000FDFF29
:1010F0000050FF9F0000000020FFCF0000FFFF0115
:1011000000000090FF7F0000F9FF0B000000F4FFDB
:101110001F0000E1FFBF030071FFFF07000040FF59
:10112000FFFFEDFFFFBF00000000F5FFFFFFFFFF27
:101130000B0000000020FAFFFFFF5C000000000031
:10114000000064672500000000000000E0FF0300CD
:101150000000000000F2FF03000000000000FBFFA1
:10116000030000000000C4FFFF03000000C6FEFFF4
:10117000FFFF03000000F9FFFFFFFF03000000F97D
:10118000FFFFFFFF03000000000000F8FF03000066
:1011900000000000F8FF03000000000000F8FF035B
:1011A000000000000000F8FF03000000000000F84D
:1011B000FF03000000000000F8FF03000000000033
:1011C00000F8FF03000000000000F8FF030000002B
:1011D000000000F8FF03000000000000F8FF03001B
:1011E0000000000000F8FF03000000000000F8FF0E
:1011F00003000000000000F8FF03000000000000F2
:10120000F8FF03000000000000F8FF0300000000EA
:101210000000F8FF03000000000000F8FF030000DA
:1012200000000000F8FF03000000000000F8FF03CA
:10123000000000000000F8FF04000000F9FFFFFFBD
:10124000FFFFFFFF02F9FFFFFFFFFFFFFF02F9FFB4
:10125000FFFFFFFFFFFF0200001064774601000060
:10126000000094FEFFFFFFBF040000E1FFFFFFFF4F
:10127000FFFFAF0000F2FFFFFFFFFFFFFF0C00F2D8
:10128000FF8D140061FDFF8F00F23B00000000A005
:10129000FFFF0051000000000000FEFF05000000FD
:1012A00000000000F9FF0700000000000000F6FF4A
:1012B0000900000000000000F6FF08000000000028
:1012C0000000F8FF0700000000000000FCFF040021
:1012D000000000000020FFFF00000000000000A050
:1012E000FF9F00000000000000F5FF1F000000004D
:1012F000000020FFFF06000000000000D1FFAF004B
:10130000000000000000FDFF0C000000000000C015
:10131000FFDF01000000000000FCFF1D00000000D6
:101320000000C0FFDF01000000000010FCFF1C00F7
:101330000000000000D2FFCF00000000000030FEDF
:10134000FF0B000000000000F4FFAF0000000000F1
:101350000060FFFF08000000000000F7FF6F0000C2
:101360000000000000FDFF6B66666666666656FD5F
:10137000FFFFFFFFFFFFFFFFDFFDFFFFFFFFFFFF9F
:10138000FFFFDFFDFFFFFFFFFFFFFFFFDF000000AC
:10139000637756020000000083FDFFFFFFEF190096
:1013A00000B0FFFFFFFFFFFFFF0600E0FFFFFFFFB2
:1013B000FFFFFF6F00E0FF9E150030F8FFFF01E028
:1013C0005D0000000030FFFF07500000000000003B
:1013D000F7FF0B00000000000000F3FF0C0000000E
:1013E00000000000F2FF0B00000000000000F5FF0D
:1013F0000800000000000000FCFF010000000000E9
:1014000000A0FF7F00000000001073FEFF08000036
:101410000000F0FFFFFF4C0000000000F0FFFF8F16
:10142000010000000000F0FFFFFFAF02000000001D
:10143000506597FDFF4F0000000000000060FFFFB7
:101440000200000000000000F6FF0B00000000009A
:101450000000E0FF1F00000000000000A0FF4F00A0
:1014600000000000000090FF6F000000000000007E
:1014700090FF6F00000000000000C0FF4F00000060
:1014800000000000F1FF1F15000000000000FAFF3F
:101490000CFB180000000080FFFF04FBFF7B130023
:1014A00072FDFFBF00FBFFFFFFFFFFFFFF0D00F816
:1014B000FFFFFFFFFFFFAF000010B7FFFFFFFFBF01
:1014C00003000000002065773600000000000000E7
:1014D00000000000FCFF030000000000000000A06E
:1014E000FFFF030000000000000000F7FFFF030003
:1014F00000000000000040FFFFFF030000000000AC
:101500000000E2FFFFFF0300000000000000FDEF0D
:10151000FAFF03000000000000A0FF3FF9FF0300F6
:101520000000000000F8FF05F9FF030000000000C4
:1015300050FF8F00F9FF030000000000F2FF0B00D6
:10154000F9FF030000000010FDDF0000F9FF0300B9
:10155000000000B0FF2E0000F9FF0300000000F9BA
:10156000FF040000F9FF0300000060FF7F0000009F
:10157000F9FF03000000F3FF0A000000F9FF030079
:101580000010FECF00000000F9FF030000C0FF1EA6
:1015900000000000F9FF030000F7FF030000000057
:1015A000F9FF030000F89F3333333333FAFF353349
:1015B00001F8FFFFFFFFFFFFFFFFFFFF08F8FFFF3E
:1015C000FFFFFFFFFFFFFFFF08F8FFFFFFFFFFFF29
:1015D000FFFFFFFF0800000000000000F9FF03000C
:1015E0000000000000000000F9FF03000000000000
:1015F00000000000F9FF03000000000000000000F0
:10160000F9FF03000000000000000000F9FF0300E4
:101610000000000000000000F9FF030000000000CF
:1016200000000000F9FF03000000000000000000BF
:10163000F9FF03000010FFFFFFFFFFFFFFFF6F1028
:10164000FFFFFFFFFFFFFFFF6F10FFFFFFFFFFFF29
:10165000FFFF6F10FFDF8888888888883810FFAF09
:101660000000000000000010FFAF000000000000BC
:101670000010FFAF0000000000000010FFAF0000EE
:10168000000000000010FFAF00000000000000108C
:10169000FFAF0000000000000010FFAF00000000DE
:1016A00000000010FFBF5445240000000010FFFFA1
:1016B000FFFFFFCF07000010FFFFFFFFFFFFEF0559
:1016C0000010FFFFFFFFFFFFFF6F001069240110F4
:1016D00063FBFFFF0300000000000040FEFF0C0062
:1016E000000000000000F3FF2F00000000000000D9
:1016F000B0FF6F0000000000000070FF7F000000DE
:101700000000000060FF9F0000000000000060FF7C
:101710008F0000000000000090FF6F00000000003C
:101720000000E0FF2F12000000000000F7FF0DF5A1
:10173000290000000060FFFF05F5FF7C130051FC4D
:10174000FFBF00F5FFFFFFFFFFFFFF1D00F4FFFFDE
:10175000FFFFFFFFAF000010B7FFFFFFFFBF040058
:101760000000002065774600000000000000000037
:101770002065773600000000000092FEFFFFFF07A3
:101780000000000080FFFFFFFFFF0700000020FEB9
:10179000FFFFFFFFFF07000000E2FFFF5A01007399
:1017A00005000000FEFF2C0000000000000090FF7C
:1017B000BF0000000000000000F3FF1D000000005B
:1017C00000000000FAFF040000000000000000FF1D
:1017D000CF000000000000000060FF6F000000006C
:1017E00000000000A0FF1F0010432300000000D0F5
:1017F000FF0E92FEFFFFBF040000F0FFADFFFFFFF2
:10180000FFFFBF0000F2FFFFFFFFFFFFFFFF1D0014
:10181000F3FFFF7C131052FCFFBF00F4FF4D0000EC
:10182000000080FFFF04F5FF0A0000000000FAFF3F
:101830000AF4FF0A0000000000F2FF0FF4FF0A00A4
:1018400000000000E0FF1FF3FF0B0000000000C0DD
:10185000FF3FF1FF0C0000000000B0FF3FE0FF0F72
:101860000000000000C0FF2FA0FF3F0000000000AC
:10187000E0FF0F50FFAF0000000000F3FF0C00FF7F
:10188000FF0300000000FAFF0600F7FF2E00000033
:1018900060FFEF0000D0FFEF060020F9FF4F0000CF
:1018A00020FEFFFFCDFEFFFF06000000D2FFFFFF7E
:1018B000FFFF4F0000000000E6FFFFFF9E01000059
:1018C0000000000052773600000000FFFFFFFFFF1E
:1018D000FFFFFFFFEFFFFFFFFFFFFFFFFFFFEFFF38
:1018E000FFFFFFFFFFFFFFFFEF878888888888885A
:1018F00088FCEF0000000000000000FEDF00000098
:101900000000000070FF5F00000000000000F1FF19
:101910000D00000000000000F8FF050000000000BE
:101920000010FFDF0000000000000090FF5F0000DB
:101930000000000000F2FF0C00000000000000FAB0
:10194000FF0400000000000030FFCF000000000096
:101950000000B0FF4F00000000000000F3FF0B008C
:10196000000000000000FCFF030000000000004039
:10197000FFBF00000000000000D0FF3F000000009B
:10198000000000F5FF0A00000000000000FDFF025B
:1019900000000000000060FFAF0000000000000039
:1019A000E0FF2F00000000000000F7FF090000002A
:1019B00000000010FEFF0100000000000080FF9FFB
:1019C00000000000000000F1FF1F00000000000008
:1019D00000F9FF0800000000000020FFFF010000E8
:1019E00000000000A0FF8F00000000000000F2FFD8
:1019F0001F000000000000000000106477360000A7
:101A00000000000050FCFFFFFF9F0200000010FBE1
:101A1000FFFFFFFFFF7F000000D1FFFF8C87FAFF71
:101A2000FF080000FBFF2C000000F8FF4F0030FF14
:101A3000DF0000000070FFCF0090FF5F000000009B
:101A400000FEFF01B0FF2F0000000000FAFF03C0FE
:101A5000FF2F0000000000F9FF03B0FF7F0000002F
:101A60000000FBFF0170FFEF0200000000FFCF004D
:101A700010FFFF4E00000060FF5F0000F5FFFF3B1E
:101A80000000F3FF0A000050FFFFFF7C41FFBF0092
:101A9000000000B2FFFFFFFFEF0700000000D4FFCF
:101AA000FFFFFFDF0400000090FF6F61FCFFFFBF3E
:101AB000010000FAFF040020E8FFFF2E0060FF7F16
:101AC00000000000F8FFDF00E0FF0E000000004013
:101AD000FFFF06F4FF090000000000F8FF0CF8FF0C
:101AE000060000000000F2FF0FF9FF0500000000F3
:101AF00000F0FF0FF8FF070000000000F0FF0FF6F6
:101B0000FF0B0000000000F2FF0CF2FF2F000000AE
:101B10000000F8FF08B0FFDF0100000030FFFF0108
:101B200020FFFF4D000000F6FF6F0000F4FFFF9D57
:101B300088EAFFFF08000040FEFFFFFFFFFF6F0085
:101B400000000070FDFFFFFF8E010000000000108C
:101B500065772500000000000000106567040000A4
:101B60000000000040FCFFFFFF2A0000000010FB07
:101B7000FFFFFFFFFF07000000D1FFFFDFECFFFFCB
:101B80009F000000FCFF5E0000A2FFFF050070FF49
:101B9000DF01000000F8FF0F00E0FF2F0000000051
:101BA000B0FF7F00F4FF0B0000000030FFEF00F8F3
:101BB000FF060000000000FCFF02FAFF0400000026
:101BC0000000F8FF06FCFF030000000000F5FF091D
:101BD000FBFF030000000000F3FF0AFAFF0500000E
:101BE000000000F2FF0BF8FF090000000000F2FF08
:101BF0000CF3FF2F0000000000F3FF0CD0FFDF020A
:101C000000000010F9FF0B30FFFF8F130052FAFFA6
:101C1000FF0A00F6FFFFFFFFFFFFFFFF090050FE76
:101C2000FFFFFFFFDFF9FF07000081FEFFFFBF0599
:101C3000F7FF040000001043230000F9FF0100003B
:101C4000000000000000FEDF0000000000000000B7
:101C500040FF7F0000000000000000B0FF1F0000F8
:101C6000000000000000F6FF0A0000000000000075
:101C700030FFFF0100000000000000F6FF6F0000D1
:101C80000090140030D7FFFF09000000F0FFFFFFB5
:101C9000FFFF9F00000000F0FFFFFFFFEF040000C8
:101CA0000000F0FFFFFFCF06000000000020757766
:101CB00046000000000000F3FF6FF3FF6FF3FF6FBB
:101CC000F3FF6FF3FF6FB2BB4B000000000000009A
:101CD0000000000000000000000000000000000004
:101CE00000000000000000B2BB4BF3FF6FF3FF6F7A
:101CF000F3FF6FF3FF6FF3FF6F00F3FF6F0000F36D
:101D0000FF6F0000F3FF6F0000F3FF6F0000F3FFB1
:101D10006F0000B2BB4B000000000000000000009C
:101D200000000000000000000000000000000000B3
:101D300000000000000000000000000000000000A3
:101D40000000000000000000000000555504005095
:101D5000FFFF070090FFFF0100D0FFAF0000F1FF81
:101D60003F0000F5FF0C0000FAFF060000FEEF0048
:101D70000020FF8F000060FF2F0000A0FF0B00007D
:101D8000E0FF040000F3DF000000B45B000000008F
:101D90000000000000000000000032000000000011
:101DA0000000000000A38F00000000000000000001
:101DB000C4FF8F0000000000000000D6FFFF8F006E
:101DC000000000000010E7FFFFEF17000000000018
:101DD00020F9FFFFCF05000000000030FAFFFFBF31
:101DE00004000000000040FBFFFF9F020000000015
:101DF0000060FDFFFF7E01000000000070FEFFFF9D
:101E00005D00000000000080FFFFFF4B00000000AD
:101E1000000000F0FFFF290000000000000000F0BB
:101E2000FFFF4B000000000000000060FDFFFF6DA1
:101E3000000000000000000050FCFFFF7E010000D9
:101E4000000000000030FBFFFF9F020000000000C8
:101E5000000020F9FFFFBF04000000000000001098
:101E6000E8FFFFDF060000000000000000E6FFFFC3
:101E7000EF170000000000000000C5FFFFFF290071
:101E800000000000000000B4FFFF8F000000000011
:101E900000000000A2FF8F00000000000000000012
:101EA00000818F000000000000000000000020F30F
:101EB000FFFFFFFFFFFFFFFFFFFFFFF3FFFFFFFF3E
:101EC000FFFFFFFFFFFFFFF3FFFFFFFFFFFFFFFF2E
:101ED000FFFFFF30333333333333333333333300A4
:101EE00000000000000000000000000000000000F2
:101EF00000000000000000000000000000000000E2
:101F000000000000000000000000000000000030A1
:101F10003333333333333333333333F3FFFFFFFFA1
:101F2000FFFFFFFFFFFFFFF3FFFFFFFFFFFFFFFFCD
:101F3000FFFFFFF3FFFFFFFFFFFFFFFFFFFFFF04B8
:101F40000000000000000000000000FC180000007D
:101F500000000000000000FCFF2A0000000000005C
:101F6000000000FCFFFF4B0000000000000000929A
:101F7000FFFFFF5C000000000000000071FEFFFF9B
:101F80007E000000000000000060FDFFFF8F0100E8
:101F900000000000000040FBFFFFAF020000000057
:101FA00000000020F9FFFFBF040000000000000057
:101FB00010E7FFFFCF050000000000000000D6FF83
:101FC000FFEF060000000000000000B4FFFF0C005F
:101FD00000000000000000D6FFFF0C000000000021
:101FE0000010E7FFFFCF04000000000020F9FFFF12
:101FF000AF03000000000040FBFFFF9F0200000055
:10200000000060FDFFFF7E01000000000071FEFF88
:10201000FF6D00000000000092FFFFFF5C00000069
:10202000000000B3FFFFFF3A00000000000000FCCA
:10203000FFFF290000000000000000FCEF18000076
:1020400000000000000000DC0600000000000000AE
:10205000000000030000000000000000000000007D
:10206000005377560200000083FCFFFFFFEF0700DC
:1020700000FEFFFFFFFFFFDF0200FEFFFFFFFFFF8D
:10208000FF1E00FE9E140040FAFFBF006C0000001F
:102090000060FFFF02000000000000FBFF070000DF
:1020A00000000000F7FF09000000000000F6FF0933
:1020B000000000000000F7FF07000000000000FB28
:1020C000FF04000000000020FFEF000000000000FF
:1020D000D0FF7F000000000010FCFF0C000000009B
:1020E00000D3FFDF010000000090FFFF1C00000094
:1020F0000050FEFF9F0000000000E0FFDF03000033
:10210000000000E0FF0B000000000000E0FF0900FD
:102110000000000000E0FF09000000000000E0FFF8
:1021200009000000000000D0FF09000000000000CE
:10213000000000000000000000000000000000009F
:102140000000000000000000000000303303000029
:1021500000000000F1FF0E000000000000F1FF0E83
:10216000000000000000F1FF0E000000000000F180
:10217000FF0E000000000000000000001063775711
:1021800003000000000000000000000061FCFFFFF1
:10219000FFFF7C01000000000000000080FFFFFF47
:1021A000FFFFFFFF9F0100000000000040FEFFBF97
:1021B000573354B8FFFF4E000000000000F7FF7FC8
:1021C000010000000071FFFF060000000080FFAF6B
:1021D00001000000000000A1FF5F00000000F5FF0B
:1021E000060000000000000000F7FF02000030FFC2
:1021F0005F00000000000000000070FF0C0000D035
:10220000FF0700000000000000000000FC6F00005D
:10221000F5BF00000050EBFF9CA3FF0700F2DF00BA
:1022200000FD2F000020FCFFFFFFFFFF0700A0FFC5
:102230000450FF0A0000E2FFFFFFFFFFFF0700302E
:10224000FF0AB0FF030000FDFF290051FAFF07005D
:1022500000FE0EF0EF000080FF5F000000B0FF07FF
:102260000000FA1FF39F0000E0FF09000000B0FF2C
:10227000070000F64FF56F0000F4FF02000000B009
:10228000FF070000F46FF74F0000F7EF00000000B9
:10229000B0FF070000F37FF83F0000F9BF00000027
:1022A00000B0FF070000F28FF83F0000FAAF000017
:1022B0000000B0FF070000F27FF83F0000FABF0007
:1022C000000000B0FF070000F36FF75F0000F9CFD8
:1022D00000000000B0FF070000F45FF57F0000F68B
:1022E000EF00000000B0FF070000F72FF2AF000082
:1022F000F3FF03000000B0FF070000FA0EE0EF005C
:1023000000E0FF0B000000E3FF070000FE0AA0FF53
:10231000030070FFAF0100A2FFFF070020FF054090
:10232000FF0B0000FDFFCFDBFFFFFF070090EF007A
:1023300000FC2F0000D1FFFFFFFF88FFFFFFFF7FA2
:102340000000F5CF000000E8FFFF2A40FFFFFFFF7D
:102350000D0000C0FF0800000032020000333333DC
:102360003302000020FE7F0000000000000000009B
:10237000000000000000F4FF090000000000000061
:102380000000000000000060FFDF0400000000000B
:10239000000000000000000000E4FFCF1600000075
:1023A0000062010000000000000010FBFFFFBEAA59
:1023B000CBFDFF02000000000000000030FBFFFF2B
:1023C000FFFFFFFF02000000000000000000109669
:1023D000ECFFEFBD6900000000000000000000F10C
:1023E000FFFF0600000000000000000000F7FFFFF4
:1023F0000C00000000000000000000FCFFFF2F00A8
:10240000000000000000000020FFEFFF7F00000040
:1024100000000000000070FF4FFFDF000000000020
:1024200000000000D0FF0DFBFF03000000000000D3
:102430000000F3FF08F5FF080000000000000000A6
:10244000F8FF02F0FF0E0000000000000000FECFC9
:1024500000A0FF4F0000000000000040FF7F004090
:10246000FF9F0000000000000090FF1F0000FEEF33
:1024700000000000000000E0FF0B0000F9FF040076
:102480000000000000F5FF060000F4FF0A00000055
:10249000000000FAFF010000E0FF0F000000000054
:1024A00000FFAF00000080FF5F000000000050FF51
:1024B0005F00000030FFBF0000000000B0FF0F0011
:1024C000000000FDFF0100000000F1FF0A00000015
:1024D00000F8FF0600000000F6FFFFFFFFFFFFFF10
:1024E000FF0C00000000FCFFFFFFFFFFFFFFFF2FBE
:1024F00000000020FFFFFFFFFFFFFFFFFF7F000046
:102500000070FF8F666666666666FFDF000000D0BB
:10251000FF0E000000000000FCFF030000F3FF09B5
:10252000000000000000F7FF080000F8FF040000B2
:1025300000000000F1FF0E0000FEEF0000000000B0
:102540000000C0FF4F0040FF9F000000000000009F
:1025500070FF9F0090FF4F0000000000000010FF80
:10256000EF00E0FF0E0000000000000000FCFF058F
:10257000F4FF090000000000000000F7FF0AF1FF6F
:10258000FFFFFFFFDE7B01000000F1FFFFFFFFFF09
:10259000FFFF9F000000F1FFFFFFFFFFFFFFFF0DA8
:1025A0000000F1FF6D666666A8FFFF9F0000F1FF67
:1025B0000C00000000B1FFFF0000F1FF0C00000064
:1025C0000000FFFF0300F1FF0C0000000000FBFF14
:1025D0000500F1FF0C0000000000FAFF0400F1FF0D
:1025E0000C0000000000FCFF0100F1FF0C000000E7
:1025F0000010FFBF0000F1FF0C00000000B0FF2F33
:102600000000F1FF0C00001072FEEF030000F1FF6C
:10261000FFFFFFFFFFFF1C000000F1FFFFFFFFFFB8
:10262000FFFFDF070000F1FFFFFFFFFFFFFFFFDFFE
:102630000200F1FF5D55555576D9FFFF2E00F1FFE1
:102640000C0000000000E4FFCF00F1FF0C000000D0
:10265000000020FFFF04F1FF0C000000000000F963
:10266000FF09F1FF0C000000000000F4FF0BF1FF78
:102670000C000000000000F3FF0DF1FF0C00000053
:10268000000000F3FF0CF1FF0C000000000000F65A
:10269000FF0AF1FF0C000000000000FBFF06F1FF45
:1026A0000C000000000060FFFF01F1FF0C000000C3
:1026B0000010F9FF8F00F1FF6D66666697FCFFFF63
:1026C0000C00F1FFFFFFFFFFFFFFFFBF0000F1FF66
:1026D000FFFFFFFFFFFFEF060000F1FFFFFFFFFF1F
:1026E000EF9C050000000000000000307667350018
:1026F00000000000000000B5FFFFFFFFCF27000033
:10270000000000D5FFFFFFFFFFFFFF4B0000009020
:10271000FFFFFFFFFEFFFFFFFF050000FBFFFF497C
:10272000000041E9FFFF060090FFFF1A00000000D3
:1027300000E6FF0600F4FF9F00000000000000F923
:102740000600FDFF0B00000000000000600550FFC8
:10275000EF01000000000000000000B0FF8F00004B
:102760000000000000000000F1FF1F00000000005A
:102770000000000000F4FF0D000000000000000059
:102780000000F7FF0900000000000000000000F951
:10279000FF0600000000000000000000FBFF050035
:1027A000000000000000000000FBFF04000000002B
:1027B000000000000000FBFF04000000000000001B
:1027C000000000FBFF05000000000000000000000A
:1027D000F9FF0700000000000000000000F8FF09FA
:1027E00000000000000000000000F5FF0D000000E8
:1027F00000000000000000F1FF2F000000000000BA
:1028000000000000D0FF9F0000000000000000005A
:102810000070FFFF0100000000000000000010FE3B
:10282000FF0C00000000000000600500F7FFAF0093
:10283000000000000000F90600C0FFFF2B000000B0
:102840000000E6FF060010FDFFFF5A010052E9FFFD
:10285000FF060000C1FFFFFFFFFFFFFFFFFF0500B6
:102860000000F8FFFFFFFFFFFFFF2A00000000103D
:10287000C7FFFFFFFFBF170000000000000040651A
:10288000773600000000F1FFFFFFFFDEAC270000FD
:10289000000000F1FFFFFFFFFFFFFF7D00000000D1
:1028A000F1FFFFFFFFFFFFFFFF6E000000F1FF6D74
:1028B000667697EBFFFFFF0A0000F1FF0C000000B7
:1028C00000A3FFFFAF0000F1FF0C0000000000C2FA
:1028D000FFFF0800F1FF0C000000000000F9FF3FBF
:1028E00000F1FF0C000000000000B0FFCF00F1FF7E
:1028F0000C00000000000010FFFF04F1FF0C0000BE
:102900000000000000F9FF0AF1FF0C0000000000C9
:102910000000F3FF0EF1FF0C00000000000000E0DB
:10292000FF2FF1FF0C00000000000000C0FF4FF17E
:10293000FF0C00000000000000A0FF6FF1FF0C0082
:1029400000000000000090FF7FF1FF0C000000007D
:1029500000000090FF7FF1FF0C000000000000006D
:10296000A0FF6FF1FF0C00000000000000B0FF4F5F
:10297000F1FF0C00000000000000E0FF1FF1FF0C61
:1029800000000000000000F2FF0EF1FF0C0000004C
:1029900000000000F8FF09F1FF0C0000000000003B
:1029A00010FFFF02F1FF0C000000000000A0FFBFBD
:1029B00000F1FF0C000000000000F9FF2F00F1FF04
:1029C0000C0000000000B1FFFF0600F1FF0C00004A
:1029D000000083FFFF9F0000F1FF6D667697EBFF1D
:1029E000FFFF090000F1FFFFFFFFFFFFFFFF5E0099
:1029F0000000F1FFFFFFFFFFFFFF7D00000000F17F
:102A0000FFFFFFFFEFAC270000000000F1FFFFFF1A
:102A1000FFFFFFFFFFFF01F1FFFFFFFFFFFFFFFFD2
:102A2000FF01F1FFFFFFFFFFFFFFFFFF01F1FF8E3F
:102A30008888888888888800F1FF0C0000000000E2
:102A4000000000F1FF0C0000000000000000F1FF9A
:102A50000C0000000000000000F1FF0C000000006E
:102A600000000000F1FF0C0000000000000000F179
:102A7000FF0C0000000000000000F1FF0C0000004F
:102A80000000000000F1FF0C00000000000000004A
:102A9000F1FFFFFFFFFFFFFFFFFF01F1FFFFFFFF60
:102AA000FFFFFFFFFF01F1FFFFFFFFFFFFFFFFFF42
:102AB00001F1FF8E8888888888888800F1FF0C00E3
:102AC00000000000000000F1FF0C0000000000000A
:102AD0000000F1FF0C0000000000000000F1FF0CFE
:102AE0000000000000000000F1FF0C0000000000EA
:102AF000000000F1FF0C0000000000000000F1FFEA
:102B00000C0000000000000000F1FF0C00000000BD
:102B100000000000F1FF0C0000000000000000F1C8
:102B2000FF0C0000000000000000F1FF8E88888884
:102B30008888888800F1FFFFFFFFFFFFFFFFFF018C
:102B4000F1FFFFFFFFFFFFFFFFFF01F1FFFFFFFFAF
:102B5000FFFFFFFFFF01F1FFFFFFFFFFFFFFFF7F11
:102B6000F1FFFFFFFFFFFFFFFF7FF1FFFFFFFFFF11
:102B7000FFFFFF7FF1FF8E88888888888838F1FF03
:102B80000C00000000000000F1FF0C00000000003D
:102B90000000F1FF0C00000000000000F1FF0C003D
:102BA000000000000000F1FF0C0000000000000029
:102BB000F1FF0C00000000000000F1FF0C0000001D
:102BC00000000000F1FF0C00000000000000F1FF19
:102BD000FFFFFFFFFFFF6F00F1FFFFFFFFFFFFFFA2
:102BE0006F00F1FFFFFFFFFFFFFF6F00F1FF8E8817
:102BF000888888883800F1FF0C0000000000000081
:102C0000F1FF0C00000000000000F1FF0C000000CC
:102C100000000000F1FF0C00000000000000F1FFC8
:102C20000C00000000000000F1FF0C00000000009C
:102C30000000F1FF0C00000000000000F1FF0C009C
:102C4000000000000000F1FF0C0000000000000088
:102C5000F1FF0C00000000000000F1FF0C0000007C
:102C600000000000F1FF0C00000000000000F1FF78
:102C70000C00000000000000F1FF0C00000000004C
:102C800000000000000000106477671400000000DE
:102C90000000000092FEFFFFFFFF9E040000000006
:102CA00000B2FFFFFFFFFFFFFFEF1800000060FF13
:102CB000FFFFFFEEFFFFFFFFFF010000F8FFFF6BCC
:102CC00002001084FDFFFF020060FFFF3D000000D6
:102CD000000030FBFF0200F3FFBF00000000000017
:102CE0000050FE0200FCFF0C00000000000000008D
:102CF000B10240FFFF0200000000000000000000E1
:102D0000B0FF9F0000000000000000000000F0FF86
:102D10002F0000000000000000000000F4FF0D0084
:102D200000000000000000000000F7FF09000000A4
:102D30000000000000000000F9FF06000000000095
:102D4000000000000000FBFF050000000000000084
:102D500000000000FBFF0400000000000000000075
:102D60000000FBFF0400000000F7FFFFFFFFFF0271
:102D7000FBFF0600000000F7FFFFFFFFFF02F9FF67
:102D80000700000000F7FFFFFFFFFF02F7FF0A0048
:102D900000000073777777FDFF02F4FF0E0000005C
:102DA0000000000000FAFF02F1FF3F0000000000F9
:102DB000000000FAFF02B0FFAF00000000000000BA
:102DC00000FAFF0240FFFF0300000000000000FACD
:102DD000FF0200FCFF1E00000000000000FAFF02DE
:102DE00000F4FFDF02000000000000FAFF020070A4
:102DF000FFFF6E000000000000FBFF020000FAFF72
:102E0000FF8D13000063FAFFFF02000070FFFFFF59
:102E1000FFEFFFFFFFFFFF02000000B3FFFFFFFF18
:102E2000FFFFFFDF06000000000093FDFFFFFFFF34
:102E30007C020000000000000010547656030000E1
:102E40000000F1FF0C000000000000B0FF2FF1FFB8
:102E50000C000000000000B0FF2FF1FF0C0000008C
:102E6000000000B0FF2FF1FF0C000000000000B0D8
:102E7000FF2FF1FF0C000000000000B0FF2FF1FF5A
:102E80000C000000000000B0FF2FF1FF0C0000005C
:102E9000000000B0FF2FF1FF0C000000000000B0A8
:102EA000FF2FF1FF0C000000000000B0FF2FF1FF2A
:102EB0000C000000000000B0FF2FF1FF0C0000002C
:102EC000000000B0FF2FF1FF0C000000000000B078
:102ED000FF2FF1FFFFFFFFFFFFFFFFFFFF2FF1FFBE
:102EE000FFFFFFFFFFFFFFFFFF2FF1FFFFFFFFFFD0
:102EF000FFFFFFFFFF2FF1FF8E888888888888D822
:102F0000FF2FF1FF0C000000000000B0FF2FF1FFC9
:102F10000C000000000000B0FF2FF1FF0C000000CB
:102F2000000000B0FF2FF1FF0C000000000000B017
:102F3000FF2FF1FF0C000000000000B0FF2FF1FF99
:102F40000C000000000000B0FF2FF1FF0C0000009B
:102F5000000000B0FF2FF1FF0C000000000000B0E7
:102F6000FF2FF1FF0C000000000000B0FF2FF1FF69
:102F70000C000000000000B0FF2FF1FF0C0000006B
:102F8000000000B0FF2FF1FF0C000000000000B0B7
:102F9000FF2FF1FF0C000000000000B0FF2FF1FF39
:102FA0000C000000000000B0FF2FF5FFFFFFFFFF47
:102FB00002F5FFFFFFFFFF02F5FFFFFFFFFF02002B
:102FC00000F8FF0600000000F8FF0500000000F810
:102FD000FF0500000000F8FF0500000000F8FF05F5
:102FE00000000000F8FF0500000000F8FF050000E9
:102FF0000000F8FF0500000000F8FF0500000000D9
:10300000F8FF0500000000F8FF0500000000F8FFD1
:103010000500000000F8FF0500000000F8FF0500B3
:10302000000000F8FF0500000000F8FF05000000A8
:1030300000F8FF0500000000F8FF0500000000F8A0
:10304000FF0500000000F8FF0500000000F8FF0584
:1030500000000000F8FF0500000000F8FF05000078
:103060000000F8FF060000F5FFFFFFFFFF02F5FF7D
:10307000FFFFFFFF02F5FFFFFFFFFF020000F7FF6A
:10308000FFFFFF090000F7FFFFFFFF090000F7FF48
:10309000FFFFFF090000212222F6FF0900000000C7
:1030A00000F4FF090000000000F4FF090000000028
:1030B00000F4FF090000000000F4FF090000000018
:1030C00000F4FF090000000000F4FF090000000008
:1030D00000F4FF090000000000F4FF0900000000F8
:1030E00000F4FF090000000000F4FF0900000000E8
:1030F00000F4FF090000000000F4FF0900000000D8
:1031000000F4FF090000000000F4FF0900000000C7
:1031100000F4FF090000000000F4FF0900000000B7
:1031200000F4FF090000000000F5FF0900000000A6
:1031300000F5FF080000000000F7FF070000000096
:1031400000FBFF050000000030FFFF01A12500107B
:10315000F7FF9F00F2FFEFFFFFFF1E00F2FFFFFFF0
:10316000FFDF0200F2FFFFFFEF0800000053766769
:1031700003000000FFEF00000000000070FFFF04EC
:10318000FFEF000000000000F5FF5F00FFEF000010
:1031900000000040FFFF0600FFEF0000000000F30A
:1031A000FF7F0000FFEF0000000020FEFF0800008E
:1031B000FFEF00000000D1FF9F000000FFEF0000C4
:1031C0000000FCFF0A000000FFEF000000B0FFBF9E
:1031D00000000000FFEF000000FAFF0C00000000FC
:1031E000FFEF000090FFDF0100000000FFEF000094
:1031F000F7FF1E0000000000FFEF0060FFEF02007D
:1032000000000000FFEF00F4FF3F0000000000009E
:10321000FFEF30FFFF04000000000000FFEFE2FFBF
:10322000EF01000000000000FFEFFEFFFF0D0000B7
:1032300000000000FFFFFFFEFFBF000000000000D5
:10324000FFFFEF71FFFF090000000000FFFF2E00ED
:10325000FAFF7F0000000000FFFF0300C0FFFF0433
:1032600000000000FFEF000010FDFF3F0000000025
:10327000FFEF000000E2FFEF01000000FFEF0000A1
:103280000030FFFF0D000000FFEF00000000F5FF21
:10329000BF000000FFEF0000000070FFFF0900000A
:1032A000FFEF0000000000F9FF6F0000FFEF0000DB
:1032B000000000B0FFFF0400FFEF0000000000006E
:1032C000FDFF3F00FFEF000000000000E1FFEF0105
:1032D000FFEF00000000000030FFFF0CF1FF0C00CA
:1032E000000000000000F1FF0C00000000000000E2
:1032F000F1FF0C00000000000000F1FF0C000000D6
:1033000000000000F1FF0C00000000000000F1FFD1
:103310000C00000000000000F1FF0C0000000000A5
:103320000000F1FF0C00000000000000F1FF0C00A5
:10333000000000000000F1FF0C0000000000000091
:10334000F1FF0C00000000000000F1FF0C00000085
:1033500000000000F1FF0C00000000000000F1FF81
:103360000C00000000000000F1FF0C000000000055
:103370000000F1FF0C00000000000000F1FF0C0055
:10338000000000000000F1FF0C0000000000000041
:10339000F1FF0C00000000000000F1FF0C00000035
:1033A00000000000F1FF0C00000000000000F1FF31
:1033B0000C00000000000000F1FF0C000000000005
:1033C0000000F1FF0C00000000000000F1FF0C0005
:1033D000000000000000F1FF0C00000000000000F1
:1033E000F1FF8E88888888888828F1FFFFFFFFFF1B
:1033F000FFFFFF5FF1FFFFFFFFFFFFFFFF5FF1FF39
:10340000FFFFFFFFFFFFFF5FF1FFFF06000000006F
:103410000000C0FFFF0DF1FFFF0D000000000000E5
:10342000F3FFFF0DF1FFFF5F000000000000FAFF57
:10343000FF0DF1FFFFCF000000000020FFFFFF0D98
:10344000F1FFFDFF040000000090FFFDFF0DF1FF04
:10345000D8FF0B00000000F1FFF6FF0DF1FF68FF41
:103460003F00000000F7DFF1FF0DF1FF08FEAF00A5
:10347000000000FE6FF1FF0DF1FF08F8FF020000F1
:1034800060FF0EF1FF0DF1FF08F1FF090000D0FF12
:1034900007F1FF0DF1FF0890FF1F0000F4FF01F19D
:1034A000FF0DF1FF0820FF8F0000FB8F00F1FF0DE3
:1034B000F1FF0800FAEF0020FF1F00F1FF0DF1FF00
:1034C0000800F3FF07A0FF0A00F1FF0DF1FF08005D
:1034D000C0FF0EF1FF0200F1FF0DF1FF080040FFF9
:1034E0006FF8BF0000F1FF0DF1FF080000FDDFFEE7
:1034F0004F0000F1FF0DF1FF080000F6FFFF0C0088
:1035000000F1FF0DF1FF080000E0FFFF050000F1F2
:10351000FF0DF1FF08000070FFDF000000F1FF0D5C
:10352000F1FF08000010FF6F000000F1FF0DF1FF38
:1035300008000000B70B000000F1FF0DF1FF0800CC
:1035400000000000000000F1FF0DF1FF0800000086
:103550000000000000F1FF0DF1FF08000000000076
:10356000000000F1FF0DF1FF080000000000000066
:1035700000F1FF0DF1FF080000000000000000F165
:10358000FF0DF1FF080000000000000000F1FF0D3A
:10359000F1FF080000000000000000F1FF0DF1FF46
:1035A000080000000000000000F1FF0DF1FFFF2FF8
:1035B000000000000080FF1FF1FFFFAF00000000CF
:1035C0000080FF1FF1FFFFFF030000000080FF1FCE
:1035D000F1FFFDFF0B0000000080FF1FF1FFC8FF9F
:1035E0003F0000000080FF1FF1FF48FFBF00000008
:1035F0000080FF1FF1FF08FCFF0300000080FF1F99
:10360000F1FF08F4FF0C00000080FF1FF1FF08B07D
:10361000FF4F00000080FF1FF1FF0830FFCF0000C8
:103620000080FF1FF1FF0800FBFF04000080FF1F68
:10363000F1FF0800F3FF0C000080FF1FF1FF0800FE
:10364000A0FF5F000080FF1FF1FF080020FFDF00E8
:103650000080FF1FF1FF080000FAFF050080FF1F38
:10366000F1FF080000F2FF0D0080FF1FF1FF0800CE
:1036700000A0FF6F0080FF1FF1FF08000020FFDFA8
:103680000080FF1FF1FF08000000F9FF0680FF1F08
:10369000F1FF08000000F1FF0E80FF1FF1FF08009E
:1036A000000090FF6F80FF1FF1FF0800000010FF77
:1036B000EF80FF1FF1FF0800000000F8FF87FF1FE9
:1036C000F1FF0800000000F1FF9EFF1FF1FF08005E
:1036D00000000080FFEFFF1FF1FF08000000001056
:1036E000FEFFFF1FF1FF080000000000F7FFFF1FB3
:1036F000F1FF080000000000E0FFFF1FF1FF0800DD
:103700000000000070FFFF1FF1FF08000000000034
:1037100000FEFF1F00000000005277670400000059
:10372000000000000010E8FFFFFFFF5B000000004A
:10373000000000F8FFFFFFFFFFFF3C00000000005B
:10374000D1FFFFFFFFFFFFFFFF0600000010FEFF9D
:10375000DF270010A5FFFF8F000000B0FFFF08006B
:10376000000000D3FFFF040000F7FF6F000000001F
:103770000010FDFF1E0000FEFF080000000000001A
:10378000F1FF7F0060FFDF0000000000000060FF2D
:10379000EF00C0FF6F0000000000000000FEFF040B
:1037A000F0FF1F0000000000000000F8FF08F4FF19
:1037B0000C0000000000000000F4FF0CF7FF0900FF
:1037C00000000000000000F1FF0FF9FF06000000FC
:1037D0000000000000E0FF1FFAFF050000000000ED
:1037E000000000D0FF2FFBFF0400000000000000DD
:1037F00000C0FF3FFBFF040000000000000000C00D
:10380000FF3FFAFF050000000000000000D0FF2F7E
:10381000F9FF060000000000000000E0FF1FF7FFB6
:10382000090000000000000000F1FF0FF4FF0C0091
:1038300000000000000000F4FF0CF1FF1F0000007A
:103840000000000000F8FF08D0FF6F00000000003B
:10385000000000FEFF0460FFDF0000000000000029
:1038600060FFEF0000FEFF08000000000000E1FF25
:103870007F0000F7FF6F000000000010FCFF1E003B
:1038800000C0FFFF0800000000D3FFFF040000108D
:10389000FDFFEF380010A5FFFF7F00000000D1FF03
:1038A000FFFFFFFFFFFFFF060000000000F8FFFF23
:1038B000FFFFFFFF4D00000000000010E9FFFFFFC9
:1038C000FF6C000000000000000000527767140049
:1038D00000000000F1FFFFFFFFDE7A010000F1FFB2
:1038E000FFFFFFFFFFAF0100F1FFFFFFFFFFFFFF43
:1038F0003E00F1FF6D6676A8FFFFFF02F1FF0C00AE
:10390000000070FFFF0CF1FF0C00000000F4FF4FFF
:10391000F1FF0C00000000A0FF9FF1FF0C00000071
:103920000050FFCFF1FF0C0000000020FFDFF1FF8F
:103930000C0000000010FFEFF1FF0C000000003051
:10394000FFDFF1FF0C0000000070FFAFF1FF0C0083
:10395000000000D0FF5FF1FF0C00000000F9FF0E37
:10396000F1FF0C000000A1FFFF06F1FF6D6676B8C5
:10397000FFFFAF00F1FFFFFFFFFFFFFF0900F1FFB7
:10398000FFFFFFFFFF5D0000F1FFFFFFFFCE5900CB
:103990000000F1FF0C00000000000000F1FF0C002F
:1039A000000000000000F1FF0C000000000000001B
:1039B000F1FF0C00000000000000F1FF0C0000000F
:1039C00000000000F1FF0C00000000000000F1FF0B
:1039D0000C00000000000000F1FF0C0000000000DF
:1039E0000000F1FF0C00000000000000F1FF0C00DF
:1039F000000000000000F1FF0C00000000000000CB
:103A00000000000000527767040000000000000082
:103A10000010E8FFFFFFFF5B00000000000000F85F
:103A2000FFFFFFFFFFFF3C0000000000D1FFFFFF92
:103A3000FFFFFFFFFF0600000010FEFFDF27001062
:103A4000A5FFFF8F000000B0FFFF0800000000D3BB
:103A5000FFFF040000F7FF6F000000000010FDFFF3
:103A60001E0000FEFF08000000000000F1FF7F00C4
:103A700060FFDF0000000000000060FFEF00C0FFFB
:103A80006F0000000000000000FEFF04F0FF1F00B8
:103A900000000000000000F8FF08F4FF0C00000028
:103AA0000000000000F4FF0CF7FF09000000000018
:103AB000000000F1FF0FF9FF060000000000000009
:103AC00000E0FF1FFAFF050000000000000000D02A
:103AD000FF2FFBFF040000000000000000C0FF3FBC
:103AE000FBFF040000000000000000C0FF3FFAFFE1
:103AF000050000000000000000D0FF2FF9FF0600C5
:103B000000000000000000E0FF2FF7FF09000000A8
:103B10000000000000F1FF0FF4FF0C0000000000A7
:103B2000000000F4FF0CF1FF0F0000000000000097
:103B300000F8FF09D0FF6F0000000000000000FE49
:103B4000FF0460FFDF0000000000000060FFEF00E6
:103B500000FEFF08000000000000E1FF6F0000F71A
:103B6000FF5F000000000010FCFF0D0000C0FFFF21
:103B70000800000000D3FFFF03000010FDFFDF2757
:103B80000010A5FFFF6F00000000D1FFFFFFEFFF57
:103B9000FFFFFF060000000000F8FFFFFFFFFFFF30
:103BA0003C00000000000010E9FFFFFFFF7F000065
:103BB000000000000000005277A7FF5F0000000037
:103BC0000000000000000050FF8F00000000000017
:103BD000000000000020FFEF0000000000000000D7
:103BE00000000000FDFF09000030000000000000A0
:103BF0000000F6FFEF8AB8DF0000000000000000C0
:103C0000B0FFFFFFFFDF000000000000000000F930
:103C1000FFFFFFDF00000000000000000030D9FFC0
:103C2000DE6BF1FFFFFFFFEF9C050000000000F1DD
:103C3000FFFFFFFFFFFFEF0600000000F1FFFFFFA7
:103C4000FFFFFFFFAF00000000F1FF6D666697FC0D
:103C5000FFFF09000000F1FF0C00000020FCFF3F07
:103C6000000000F1FF0C00000000D0FF9F000000EA
:103C7000F1FF0C0000000060FFCF000000F1FF0C1E
:103C80000000000020FFEF000000F1FF0C0000002A
:103C90000010FFFF000000F1FF0C0000000020FFFB
:103CA000DF000000F1FF0C0000000050FFBF00002B
:103CB00000F1FF0C00000000A0FF6F000000F1FF0A
:103CC0000C00000000F4FF1E000000F1FF0C0000DB
:103CD0000050FFFF06000000F1FF5D555596FDFF07
:103CE0008F00000000F1FFFFFFFFFFFFFF06000055
:103CF0000000F1FFFFFFFFFFFF290000000000F1BF
:103D0000FFFFFFFFFFFF090000000000F1FF0C00B4
:103D100000F6FF6F0000000000F1FF0C000090FFB4
:103D2000FF0400000000F1FF0C000000FBFF2E006C
:103D3000000000F1FF0C000000D1FFDF01000000D7
:103D4000F1FF0C00000020FFFF0B000000F1FF0C52
:103D500000000000F5FF9F000000F1FF0C000000D4
:103D60000080FFFF060000F1FF0C0000000000FBD8
:103D7000FF4F0000F1FF0C0000000000D0FFEF0239
:103D800000F1FF0C000000000020FEFF0D00F1FF1D
:103D90000C000000000000F4FFBF00F1FF0C000069
:103DA0000000000070FFFF08000000005276673539
:103DB00000000000000020E8FFFFFFFFDF490000D7
:103DC0000000F7FFFFFFFFFFFFFF8E0000B0FFFFC7
:103DD000FFFFFFFFFFFFEF0000FAFFCF2600106399
:103DE000FBFFEF0050FFFF070000000000D6EF00D0
:103DF000B0FF7F00000000000000D700F0FF0F00C0
:103E00000000000000002000F2FF0D000000000094
:103E100000000000F2FF0E000000000000000000A3
:103E2000F1FF2F000000000000000000D0FFBF00E5
:103E3000000000000000000080FFFF4C00000000B8
:103E40000000000010FEFFFFAE4701000000000070
:103E500000F3FFFFFFFFEF8B040000000020FCFFDA
:103E6000FFFFFFFFEF180000000050FBFFFFFFFF08
:103E7000FFFF05000000000074DAFFFFFFFF6F0086
:103E800000000000000030B7FFFFFF02000000004C
:103E900000000000A1FFFF0900000000000000007A
:103EA00000F9FF0D000000000000000000F2FF0F0D
:103EB000000000000000000000F0FF0F0000000004
:103EC0000000000000F0FF0E750000000000000080
:103ED00000F4FF0BF61B00000000000000FCFF06D2
:103EE000F6FF2A0000000000B1FFDF00F6FFFF7CB4
:103EF00014001094FFFF3F00F6FFFFFFFFFFFFFFDE
:103F0000FFFF040071FDFFFFFFFFFFFFFF2C00001C
:103F10000030D8FFFFFFFFFF4B0000000000003023
:103F20006577560300000000FFFFFFFFFFFFFFFF64
:103F3000FFFFFFFF0AFFFFFFFFFFFFFFFFFFFFFF86
:103F4000FF0AFFFFFFFFFFFFFFFFFFFFFFFF0A88E2
:103F500088888888FCFF8A88888888050000000097
:103F600000F9FF0400000000000000000000F9FF5D
:103F70000400000000000000000000F9FF04000041
:103F80000000000000000000F9FF04000000000035
:103F90000000000000F9FF04000000000000000025
:103FA0000000F9FF0400000000000000000000F91C
:103FB000FF0400000000000000000000F9FF040002
:103FC000000000000000000000F9FF0400000000F5
:103FD000000000000000F9FF0400000000000000E5
:103FE000000000F9FF0400000000000000000000D5
:103FF000F9FF0400000000000000000000F9FF04C9
:1040000000000000000000000000F9FF04000000B4
:1040100000000000000000F9FF04000000000000A4
:1040200000000000F9FF0400000000000000000094
:1040300000F9FF0400000000000000000000F9FF8C
:104040000400000000000000000000F9FF04000070
:104050000000000000000000F9FF04000000000064
:104060000000000000F9FF04000000000000000054
:104070000000F9FF0400000000000000000000F94B
:10408000FF0400000000000000000000F9FF040031
:10409000000000000000000000F9FF040000000024
:1040A000000000000000F9FF040000000000F8FF1D
:1040B00005000000000000F1FF0CF8FF0500000003
:1040C000000000F1FF0CF8FF05000000000000F107
:1040D000FF0CF8FF05000000000000F1FF0CF8FFE6
:1040E00005000000000000F1FF0CF8FF05000000D3
:1040F000000000F1FF0CF8FF05000000000000F1D7
:10410000FF0CF8FF05000000000000F1FF0CF8FFB5
:1041100005000000000000F1FF0CF8FF05000000A2
:10412000000000F1FF0CF8FF05000000000000F1A6
:10413000FF0CF8FF05000000000000F1FF0CF8FF85
:1041400005000000000000F1FF0CF8FF0500000072
:10415000000000F1FF0CF8FF05000000000000F176
:10416000FF0CF8FF05000000000000F1FF0CF8FF55
:1041700005000000000000F1FF0CF8FF0500000042
:10418000000000F1FF0CF8FF05000000000000F146
:10419000FF0CF7FF06000000000000F1FF0BF6FF28
:1041A00007000000000000F3FF0AF4FF0900000010
:1041B000000000F5FF08F1FF0D000000000000F90D
:1041C000FF05D0FF3F000000000000FEFF0170FF70
:1041D000CF000000000080FFBF0010FFFF0A0000BA
:1041E0000000F7FF4F0000F5FFEF260010C5FFFFAE
:1041F0000A000090FFFFFFEFFFFFFFCF000000006D
:10420000F7FFFFFFFFFFFF0A0000000010E9FFFFBC
:10421000FFFF3B0000000000000052765703000043
:104220000000F4FF0D0000000000000000F4FF0A91
:10423000E0FF2F0000000000000000FAFF0590FFE3
:104240008F0000000000000000FFEF0040FFDF00D3
:1042500000000000000050FF9F0000FEFF03000070
:1042600000000000A0FF4F0000F8FF080000000061
:104270000000F0FF0E0000F3FF0E00000000000041
:10428000F5FF080000D0FF3F000000000000FBFF2A
:1042900003000070FF9F000000000010FFDF00001F
:1042A0000020FFEF000000000060FF7F0000000022
:1042B000FCFF0400000000B0FF2F00000000F6FF2C
:1042C0000A00000000F1FF0C00000000F1FF0F00E9
:1042D000000000F6FF0600000000B0FF5F000000D5
:1042E00000FCFF010000000050FFAF00000020FFB5
:1042F000BF000000000000FFFF00000070FF5F0033
:104300000000000000FAFF050000D0FF0F000000D1
:10431000000000F5FF0B0000F2FF0A0000000000A3
:1043200000E0FF1F0000F8FF040000000000009004
:10433000FF6F0000FDEF0000000000000040FFBF25
:104340000030FF9F0000000000000000FEFF018021
:10435000FF4F0000000000000000F8FF06E0FF0E25
:104360000000000000000000F3FF0CF3FF08000055
:10437000000000000000D0FF1FF9FF030000000054
:104380000000000070FF7FFEDF0000000000000062
:10439000000020FFFFFF7F00000000000000000081
:1043A00000FCFFFF2F00000000000000000000F7ED
:1043B000FFFF0C00000000000000000000F1FFFF04
:1043C000060000000000F1FF0E0000000000F3FFF7
:1043D0000E0000000000F2FF09D0FF2F00000000D7
:1043E00000F7FF2F0000000000F6FF0590FF6F00B0
:1043F00000000000FBFF6F0000000000FAFF01401A
:10440000FF9F0000000000FFFFAF0000000000FE63
:10441000DF0010FFDF0000000030FFFFEF000000B2
:104420000010FF9F0000FCFF0100000070FFFCFF78
:104430000200000050FF5F0000F8FF05000000A030
:10444000FFE6FF0600000090FF1F0000F4FF0900D8
:104450000000E0FFA2FF09000000D0FF0D0000F007
:10446000FF0D000000F2EF60FF0D000000F1FF09FA
:104470000000C0FF1F000000F6AF20FF1F0000007B
:10448000F5FF05000080FF5F000000FA6F00FE5F8F
:10449000000000F9FF01000040FF9F000000FE3F08
:1044A00000FB9F000000FCDF00000000FFDF0000B9
:1044B00020FF0F00F7DF000000FF9F00000000FB5F
:1044C000FF010050FF0B00F3FF010040FF5F000001
:1044D0000000F7FF050090FF0700F0FF040080FFD9
:1044E0001F00000000F3FF0800D0FF0300B0FF082A
:1044F00000C0FF0D00000000F0FF0C00F1FF000005
:1045000070FF0C00F0FF0900000000B0FF0F00F585
:10451000CF000030FF0F00F4FF050000000070FF27
:104520004F00F98F000000FF4F00F7FF010000006F
:104530000030FF8F00FD4F000000FB8F00FBDF000D
:104540000000000000FECF10FF0F000000F7CF00BA
:10455000FF9F000000000000FAFF40FF0C00000079
:10456000F3FF30FF5F000000000000F6FF84FF084B
:10457000000000F0FF73FF1F000000000000F2FFCA
:10458000C8FF04000000C0FFB7FF0D0000000000DE
:1045900000E0FFFCFF0100000080FFEBFF090000CE
:1045A00000000000A0FFFFDF0000000040FFFFFF51
:1045B0000500000000000060FFFF9F0000000000F9
:1045C000FFFFFF0100000000000020FFFF5F000070
:1045D000000000FCFFDF0000000000000000FEFF04
:1045E0001F0000000000F8FF9F0000000000000016
:1045F00000FAFF0D0000000000F4FF5F0000000063
:10460000F2FF5F00000000000000F7FF0B70FFEFFB
:1046100001000000000020FFFF0200FCFF09000075
:10462000000000C0FF6F0000F2FF4F00000000001C
:10463000F7FF0B000070FFDF0000000020FFFF010C
:10464000000000FCFF08000000C0FF5F0000000049
:10465000F2FF3F000000F6FF0B0000000070FFDFDC
:10466000000010FFEF010000000000FCFF0700B099
:10467000FF5F000000000000F3FF2F00F6FF0A00BC
:10468000000000000080FFCF10FFEF0100000000DD
:10469000000000FDFFB6FF4F00000000000000001A
:1046A000F3FFFFFF0A000000000000000080FFFF92
:1046B000EF01000000000000000000FDFF4F0000BF
:1046C0000000000000000000FDFF8F00000000005F
:1046D0000000000080FFFFFF02000000000000005B
:1046E00000F3FFFEFF0C0000000000000000FDFFD3
:1046F000C2FF7F0000000000000090FF7F20FFFF4E
:1047000002000000000000F4FF0C00F8FF0C0000A5
:1047100000000000FDFF0200D0FF7F00000000004D
:1047200090FF7F000030FFFF0200000000F4FF0C4C
:10473000000000F9FF0C00000000FEFF0200000076
:10474000E0FF7F000000A0FF8F0000000040FFFF9F
:10475000020000F4FF0D0000000000FAFF0C001042
:10476000FEFF030000000000E1FF6F00A0FF8F00CC
:10477000000000000050FFFF02F5FF0D00000000E8
:10478000000000FBFF0BF9FF0A0000000000000022
:10479000FEFF03E1FF4F00000000000080FF9F00CC
:1047A00060FFDF000000000000F2FF1E0000FCFFC1
:1047B000070000000000FBFF050000F3FF1F0000E2
:1047C000000050FFCF00000090FFAF00000000E0AD
:1047D000FF2F00000010FEFF03000000F8FF08009C
:1047E000000000F6FF0D000020FFEF0000000000B9
:1047F000D0FF6F0000B0FF5F000000000030FFEF4F
:104800000100F4FF0B000000000000FAFF0900FDAA
:10481000FF02000000000000F1FF3F80FF8F00005A
:10482000000000000070FFCFF2FF0D00000000004C
:10483000000000FDFFFEFF0400000000000000007B
:10484000F4FFFFBF000000000000000000A0FFFF19
:104850001F00000000000000000010FFFF07000024
:104860000000000000000000FAFF0400000000004B
:104870000000000000F9FF0400000000000000003C
:104880000000F9FF0400000000000000000000F933
:10489000FF0400000000000000000000F9FF040019
:1048A000000000000000000000F9FF04000000000C
:1048B000000000000000F9FF0400000000000000FC
:1048C000000000F9FF0400000000000000000000EC
:1048D000F9FF0400000000000000000000F9FF04E0
:1048E00000000000000000000000F9FF04000000CC
:1048F00000000000000000F9FF04000000000000BC
:1049000000000000F9FF040000000000E0FFFFFFCE
:10491000FFFFFFFFFFFFFF0BE0FFFFFFFFFFFFFFBA
:10492000FFFFFF0BE0FFFFFFFFFFFFFFFFFFFF0B9E
:10493000708888888888888888FFFF0A00000000BF
:104940000000000070FFEF01000000000000000008
:10495000F4FF3F000000000000000010FEFF060012
:1049600000000000000000C0FFAF000000000000D9
:10497000000000F9FF0D000000000000000060FFD3
:10498000EF020000000000000000F3FF4F000000F5
:10499000000000000010FDFF070000000000000004
:1049A00000B0FFBF000000000000000000F8FF1D85
:1049B000000000000000000040FFFF0200000000B7
:1049C00000000000E2FF5F000000000000000000A7
:1049D000FDFF090000000000000000A0FFCF000064
:1049E00000000000000000F6FF1E000000000000B4
:1049F000000030FFFF030000000000000000E1FFA6
:104A00006F000000000000000000FCFF0A00000032
:104A1000000000000080FFCF000000000000000048
:104A200000F5FF2E000000000000000020FFFF0442
:104A30000000000000000000D0FF7F000000000028
:104A400000000000F7FF8F88888888888888881889
:104A5000F8FFFFFFFFFFFFFFFFFFFF2FF8FFFFFF44
:104A6000FFFFFFFFFFFFFF2FF8FFFFFFFFFFFFFF2D
:104A7000FFFFFF2FF5FFFFFFFF0DF5FFFFFFFF0D0E
:104A8000F5FFDDDDDD0BF5FF01000000F5FF0100A6
:104A90000000F5FF01000000F5FF01000000F5FF38
:104AA00001000000F5FF01000000F5FF010000001B
:104AB000F5FF01000000F5FF01000000F5FF010017
:104AC0000000F5FF01000000F5FF01000000F5FF08
:104AD00001000000F5FF01000000F5FF01000000EB
:104AE000F5FF01000000F5FF01000000F5FF0100E7
:104AF0000000F5FF01000000F5FF01000000F5FFD8
:104B000001000000F5FF01000000F5FF01000000BA
:104B1000F5FF01000000F5FF01000000F5FF0100B6
:104B20000000F5FF01000000F5FF01000000F5FFA7
:104B300001000000F5FF01000000F5FF010000008A
:104B4000F5FF01000000F5FF01000000F5FFEEEEAB
:104B5000EE0BF5FFFFFFFF0DF5FFFFFFFF0DF7FF6A
:104B600000000000000000F1FF0500000000000050
:104B7000B0FF0B00000000000050FF1F000000000D
:104B8000000000FE7F00000000000000F9DF0000D0
:104B90000000000000F3FF03000000000000D0FF51
:104BA0000900000000000070FF0E0000000000007F
:104BB00010FF5F00000000000000FBBF00000000CD
:104BC000000000F5FF01000000000000E0FF07000A
:104BD000000000000090FF0D00000000000030FF0A
:104BE0003F00000000000000FD9F000000000000EA
:104BF00000F7EF00000000000000F1FF05000000DA
:104C0000000000B0FF0A00000000000050FF1F007D
:104C1000000000000000FF6F00000000000000F92D
:104C2000CF00000000000000F3FF020000000000C1
:104C300000D0FF0800000000000070FF0E00000020
:104C400000000010FF4F00000000000000FBAF005C
:104C5000000000000000F5FF01000000000000F06F
:104C6000FF0600000000000090FF0C0000000000A4
:104C70000030FF2F00000000000000FD8F0000004A
:104C800000000000F7EF00000000000000F2FF0449
:104C9000000000000000B0FF0A000000000000500B
:104CA000FF0F00000000000000FF6F000000000088
:104CB00000008558FAFFFFFFFF08FAFFFFFFFF081B
:104CC000D9DDDDFDFF08000000E0FF08000000E086
:104CD000FF08000000E0FF08000000E0FF080000FF
:104CE00000E0FF08000000E0FF08000000E0FF080F
:104CF000000000E0FF08000000E0FF08000000E006
:104D0000FF08000000E0FF08000000E0FF080000CE
:104D100000E0FF08000000E0FF08000000E0FF08DE
:104D2000000000E0FF08000000E0FF08000000E0D5
:104D3000FF08000000E0FF08000000E0FF0800009E
:104D400000E0FF08000000E0FF08000000E0FF08AE
:104D5000000000E0FF08000000E0FF08000000E0A5
:104D6000FF08000000E0FF08000000E0FF0800006E
:104D700000E0FF08000000E0FF08000000E0FF087E
:104D8000000000E0FF08000000E0FF08E9EEEEFE92
:104D9000FF08FAFFFFFFFF08FAFFFFFFFF08000010
:104DA00000000030FF1E00000000000000000000B6
:104DB00000E0FFAF0000000000000000000000FA6B
:104DC000FFFF0600000000000000000060FFDFFFA2
:104DD0002F000000000000000000F2FF1AFECF00CC
:104DE0000000000000000000FCEF00F4FF080000DD
:104DF000000000000080FF3F0080FF4F0000000027
:104E0000000000F4FF080000FCEF010000000000BB
:104E100010FECF000000F2FF0B0000000000A0FF1A
:104E20002F00000060FF6F0000000000F6FF06008A
:104E3000000000FBFF0200000020FFAF00000000A8
:104E400000E1FF0D000000D0FF1E00000000004048
:104E5000FF9F000000F9FF04000000000000F8FFC1
:104E6000040040FF8F00000000000000C0FF1E0093
:104E7000E1FF0D0000000000000020FFBF006066A1
:104E8000666666666666666666666603F1FFFFFFCF
:104E9000FFFFFFFFFFFFFFFFFF08F1FFFFFFFFFF27
:104EA000FFFFFFFFFFFFFF088188480000A0FFDF32
:104EB000000000FEFF050000F3FF0C000080FF4F24
:104EC000000000FCBF000000F2FF03000060FF0ACA
:104ED0000000306577560300000000D9FFFFFFFF98
:104EE000FF2A000000FFFFFFFFFFFFFF060000FF9B
:104EF000FFEFDDFEFFFF4F0000BF37010000B3FFF3
:104F0000DF0000000000000000FAFF0300000000C6
:104F1000000000F3FF0600000000000000F1FF08A1
:104F200000000063B9ECFEFFFF080010E8FFFFFF80
:104F3000FFFFFF0900E6FFFFFFFFFFFFFF0960FF24
:104F4000FFCF693401F1FF09F2FFBF02000000F159
:104F5000FF09F8FF0B00000000F1FF09FCFF010052
:104F6000000000F1FF09FEEF0000000000F1FF0962
:104F7000FFDF0000000000F1FF09FDFF010000005D
:104F800000F6FF09FAFF08000000A2FFFF09F4FF86
:104F9000AF1420A4FFFFFF09B0FFFFFFFFFFFFFDDD
:104FA000FF0900FCFFFFFFFF8FF1FF090080FFFFFB
:104FB000FFAF02F1FF09000050774600000000003B
:104FC000F6FF0400000000000000F6FF04000000EF
:104FD00000000000F6FF0400000000000000F6FFE3
:104FE0000400000000000000F6FF040000000000C4
:104FF0000000F6FF0400000000000000F6FF0400BF
:10500000000000000000F6FF0400000000000000A7
:10501000F6FF0400407636000000F6FF0491FFFF23
:10502000FF6E0000F6FF74FFFFFFFFFF0A00F6FFB0
:10503000FDFFFFFFFFFF8F00F6FFFFBF3621D6FF0A
:10504000FF03F6FFBF03000000FBFF0BF6FF0800A5
:10505000000000F1FF1FF6FF040000000090FF5F5A
:10506000F6FF040000000050FF8FF6FF0400000070
:105070000020FFAFF6FF040000000000FFBFF6FFB6
:10508000040000000000FFCFF6FF04000000000055
:10509000FFCFF6FF040000000000FFAFF6FF0400A2
:1050A00000000030FF9FF6FF040000000060FF5F7B
:1050B000F6FF0400000000C0FF1FF6FF0400000020
:1050C00000F4FF0BF6FF0400000030FEFF03F6FFC4
:1050D000AF140020F8FF9F00F6FFFFFFEFFFFFFF78
:1050E0000C00F6FFFFFFFFFFFFBF0000F6FF73FE9F
:1050F000FFFFDF06000000000020756703000000CE
:10510000000000006477250000000040FBFFFFFF67
:105110009E030000FAFFFFFFFFFF9F00C1FFFFDFBC
:10512000DCFFFFCF00FBFF7F010040FBCF60FFEF04
:105130000200000020CCD0FF3F000000000040F43F
:10514000FF0A000000000000F8FF0500000000005A
:1051500000FCFF01000000000000FDFF0000000057
:10516000000000FEEF00000000000000FEEF000065
:105170000000000000FDFF00000000000000FCFF38
:1051800001000000000000F9FF0400000000000022
:10519000F5FF0A000000000000E0FF3F00000000F3
:1051A000003080FFEF0200000020CB00FDFF7E01F9
:1051B0000040FACF00E2FFFFDFDCFFFFCF0020FD61
:1051C000FFFFFFFFFF9F000050FCFFFFFF8E02006C
:1051D000000010647725000000000000000000506F
:1051E000FF5F0000000000000050FF5F00000000B3
:1051F00000000050FF5F0000000000000050FF5F53
:105200000000000000000050FF5F000000000000F0
:105210000050FF5F0000000000000050FF5F000032
:10522000000000000050FF5F000000207567035081
:10523000FF5F000050FDFFFFEF78FF5F0000FBFF06
:10524000FFFFFFFFFF5F00C0FFFFFFFFFFFFFF5FEC
:1052500000FAFF9F030052FAFF5F40FFFF040000C7
:105260000050FF5FC0FF5F0000000050FF5FF2FFD3
:105270000C0000000050FF5FF6FF06000000005029
:10528000FF5FFAFF020000000050FF5FFCFF00001C
:1052900000000050FF5FFDFF000000000050FF5FB6
:1052A000FDEF000000000050FF5FFDFF0000000068
:1052B0000050FF5FFCFF010000000050FF5FF9FF9E
:1052C000040000000050FF5FF6FF080000000050DF
:1052D000FF5FF1FF1F0000000090FF5FB0FFBF0005
:1052E000000030FCFF5F30FFFF6D1263FBFFFF5FCC
:1052F00000F8FFFFFFFFFFDFFF5F00A0FFFFFFFFE2
:10530000FF56FF5F0000E5FFFFFF1A50FF5F000040
:1053100000636704000000000000000064672500CF
:105320000000000030FBFFFFFF6D00000000FAFFEF
:10533000FFFFFFFF1C0000C0FFFFADAAFDFFDF0065
:1053400000FAFF2A000020FCFF0950FF7F00000048
:1053500000C0FF1FC0FF0B0000000030FF6FF3FF15
:10536000030000000000FE9FF7EF000000000000B7
:10537000FCCFFBFFEEEEEEEEEEEEFFDFFCFFFFFFFD
:10538000FFFFFFFFFFDFFEFFFFFFFFFFFFFFFFEF5E
:10539000FEDF0000000000000000FDEF0000000044
:1053A00000000000FBFF0100000000000000F8FF0B
:1053B0000500000000000000F4FF0C0000000000E9
:1053C0000000E0FF7F0000000000003160FFFF06EA
:1053D00000000000607E00FBFFBF04000083FE7F32
:1053E00000C1FFFFFFCDFEFFFF7F0000F9FFFFFFC1
:1053F000FFFFFF5F000020EAFFFFFFFF6B000000E0
:10540000000053765703000000000092EDFFBD033B
:10541000000080FFFFFFFF050000F8FFFFFFFF0512
:105420000020FFFF6B54A7040090FF5F0000000006
:1054300000E0FF0C0000000000F1FF080000000089
:1054400000F2FF060000000000F2FF05000000006F
:10545000FAFFFFFFFFFF0F00FAFFFFFFFFFF0F0044
:10546000FAFFFFFFFFFF0F0021F5FF2922220200B4
:1054700000F3FF070000000000F3FF07000000003A
:1054800000F3FF070000000000F3FF07000000002A
:1054900000F3FF070000000000F3FF07000000001A
:1054A00000F3FF070000000000F3FF07000000000A
:1054B00000F3FF070000000000F3FF0700000000FA
:1054C00000F3FF070000000000F3FF0700000000EA
:1054D00000F3FF070000000000F3FF0700000000DA
:1054E00000F3FF070000000000F3FF0700000000CA
:1054F00000F3FF070000000000F3FF0700000000BA
:1055000000000020756703000000000050FDFFFF51
:10551000EF58FF5F0010FCFFFFFFFFFFFF5F00D1B0
:10552000FFFFFFFEFFFFFF5F00FBFF8F020051FA4E
:10553000FF5F50FFEF0300000060FF5FD0FF4F00F0
:1055400000000050FF5FF3FF0B0000000050FF5F02
:10555000F7FF050000000050FF5FFBFF02000000A6
:105560000050FF5FFCFF000000000050FF5FFDEFF8
:10557000000000000050FF5FFDEF00000000005041
:10558000FF5FFCFF000000000050FF5FFBFF010019
:1055900000000050FF5FF8FF050000000050FF5FB3
:1055A000F5FF0A0000000050FF5FF0FF2F00000031
:1055B00000B1FF5F90FFEF03000071FEFF5F10FE80
:1055C000FFCF89C9FFFFFF5F00F4FFFFFFFFFFBFB1
:1055D000FF4F0040FEFFFFFFCF52FF3F000060EB98
:1055E000EF9D0460FF2F0000000000000070FF0F1F
:1055F00000000000000000B0FF0C000000000000F0
:1056000000F3FF0700450000000040FEFF0100F925
:10561000DF7A6697FDFF7F0000F9FFFFFFFFFFFFC6
:10562000090000F9FFFFFFFFFF6E00000041B8FD19
:10563000FFDE59000000F6FF04000000000000003B
:10564000F6FF0400000000000000F6FF0400000068
:1056500000000000F6FF0400000000000000F6FF5C
:105660000400000000000000F6FF0400000000003D
:105670000000F6FF0400000000000000F6FF040038
:10568000000000000000F6FF040030764600000035
:10569000F6FF0470FEFFFF8F0000F6FF44FEFFFFE1
:1056A000FFFF0C00F6FFFCFFFFFFFFFF9F00F6FF70
:1056B000FFDF3721D5FFFF01F6FFDF05000000FC0B
:1056C000FF07F6FF0A00000000F4FF0AF6FF0400DF
:1056D000000000F1FF0CF6FF0400000000F0FF0DD9
:1056E000F6FF0400000000E0FF0DF6FF04000000DC
:1056F00000D0FF0DF6FF0400000000D0FF0DF6FF04
:105700000400000000D0FF0DF6FF0400000000D0F0
:10571000FF0DF6FF0400000000D0FF0DF6FF0400AF
:10572000000000D0FF0DF6FF0400000000D0FF0DC8
:10573000F6FF0400000000D0FF0DF6FF040000009B
:1057400000D0FF0DF6FF0400000000D0FF0DF6FFB3
:105750000400000000D0FF0DF6FF0400000000D0A0
:10576000FF0DF6FF0400000000D0FF0DF9FF09F95E
:10577000FF09F9FF09E8EE08000000000000000042
:1057800000000000F5FF05F5FF05F5FF05F5FF0535
:10579000F5FF05F5FF05F5FF05F5FF05F5FF05F537
:1057A000FF05F5FF05F5FF05F5FF05F5FF05F5FF1D
:1057B00005F5FF05F5FF05F5FF05F5FF05F5FF0507
:1057C000F5FF05F5FF0500000000FBFF06000000E7
:1057D00000FBFF0600000000FBFF0600000000EADF
:1057E000EE050000000000000000000000000000C6
:1057F00000000000000000000000000000000000A9
:10580000FFFFFFFF020000FFFFFFFF020000FFFF9E
:10581000FFFF0200002222F9FF0200000000F8FF53
:105820000200000000F8FF0200000000F8FF020084
:10583000000000F8FF0200000000F8FF0200000076
:1058400000F8FF0200000000F8FF0200000000F86E
:10585000FF0200000000F8FF0200000000F8FF0255
:1058600000000000F8FF0200000000F8FF02000046
:105870000000F8FF0200000000F8FF020000000036
:10588000F8FF0200000000F8FF0200000000F8FF2F
:105890000200000000F8FF0200000000F9FF020013
:1058A000000000FAFF0100000000FEFF0000000001
:1058B00080FFBF00E36976FCFF4F00F3FFFFFFFFAF
:1058C0000A00F3FFFFFFAF000091ECFFAD03000003
:1058D000F3FF070000000000000000F3FF070000D6
:1058E000000000000000F3FF0700000000000000BF
:1058F00000F3FF070000000000000000F3FF0700B6
:1059000000000000000000F3FF070000000000009E
:105910000000F3FF070000000000000000F3FF0795
:105920000000000000000000F3FF0700000000007E
:10593000000000F3FF0700000000F6FF3F00F3FF48
:105940000700000060FFFF0300F3FF07000000F501
:10595000FF3F0000F3FF07000050FFFF030000F3CC
:10596000FF070000F4FF3F000000F3FF070040FFC7
:10597000FF03000000F3FF0700F4FF3F00000000FA
:10598000F3FF0730FFFF0300000000F3FF07F3FF02
:105990003F0000000000F3FF27FEFF0300000000AF
:1059A00000F3FFE9FFDF000000000000F3FFFFFF4E
:1059B000FF0B0000000000F3FFFFEBFFAF00000053
:1059C0000000F3FFAF30FFFF0900000000F3FF0A03
:1059D00000F4FF8F00000000F3FF070050FFFF07F7
:1059E000000000F3FF070000F6FF5F000000F3FF78
:1059F00007000080FFFF040000F3FF07000000F92C
:105A0000FF3F0000F3FF07000000A0FFFF0200F3CC
:105A1000FF0700000000FCFF2E00F3FF070000005E
:105A200000D0FFDF01F5FF05F5FF05F5FF05F5FFE8
:105A300005F5FF05F5FF05F5FF05F5FF05F5FF0584
:105A4000F5FF05F5FF05F5FF05F5FF05F5FF05F584
:105A5000FF05F5FF05F5FF05F5FF05F5FF05F5FF6A
:105A600005F5FF05F5FF05F5FF05F5FF05F5FF0554
:105A7000F5FF05F5FF05F5FF05F5FF05F5FF05F554
:105A8000FF0500000000407635000000004076462B
:105A9000000000F6FF0481FEFFFF3C000092FFFFC4
:105AA000FF6E0000F6FF54FEFFFFFFFF0570FFFFD3
:105AB000FFFFFF0800F6FFFCFFFFFFFFFF2FFBFFCC
:105AC000FFFFFFFF3F00F6FFFFCF3631E7FFFFFF8D
:105AD000CF3621E6FFBF00F6FFDF04000030FFFFF6
