:020000040800F2
:10000000A080042035F70508FDCF050803D00508BA
:100010000DD0050817D0050821D005080000000004
:10002000000000000000000000000000D58D040862
:100030002BD0050800000000798D040823800408F7
:1000400069F805086DF8050871F8050875F80508E0
:1000500079F805087DF8050881F8050885F8050890
:1000600089F805088DF8050891F8050895F8050840
:1000700099F805089DF80508A1F80508A5F80508F0
:10008000A9F80508ADF80508B1F80508B5F80508A0
:10009000B9F80508BDF80508C1F80508C5F8050850
:1000A000C9F80508CDF80508D1F80508D5F8050800
:1000B000D9F80508DDF80508E1F80508E5F80508B0
:1000C000E9F80508EDF80508F1F80508F5F8050860
:1000D000F9F80508FDF8050801F9050805F905080E
:1000E00009F905080DF9050811F9050815F90508BC
:1000F00019F905081DF9050821F9050825F905086C
:1001000029F905082DF9050831F9050835F905081B
:1001100039F905083DF9050841F9050845F90508CB
:1001200049F905084DF9050851F9050855F905087B
:1001300059F905085DF9050861F9050865F905082B
:1001400069F905086DF9050871F9050875F90508DB
:1001500079F905087DF9050881F9050831D0050808
:1001600085F9050889F905088DF9050891F905084B
:1001700095F9050899F905089DF9050800000000A2
:10018000A1F90508A5F90508A9F90508ADF90508BB
:10019000B1F90508B5F90508B9F90508BDF905086B
:1001A000C1F90508C5F90508B15E0508C9F90508D2
:1001B000715D0508F7FFFF1FF6FFFF1FF6FFFF0F3A
:1001C000F6FFFF0FF5FFFF0FF5FFFF0EF5FFFF0E28
:1001D000F4FFFF0EF4FFFF0DF3FFFF0DF3FFFF0D24
:1001E000F3FFFF0CF2FFFF0CF2FFFF0CF2FFFF0B1F
:1001F000F1FFFF0BF1FFFF0AF0FFFF0AF0FFFF0A1C
:10020000F0FFFF09E0FFFF09E0FFFF09E0FFFF0843
:10021000D0FFFF08D0FFFF08C0FFFF07C0FFFF07A8
:10022000C0FFFF07B0FFFF06B0FFFF06A0FFFF05FE
:10023000A0EEEE050000000000000000000000003D
:10024000000000000000000041444403F3FFFF0CE5
:10025000F3FFFF0CF3FFFF0CF3FFFF0CF3FFFF0CAA
:10026000F3FFFF0CF1FFFF4F0000FBFFFF09F0FF62
:10027000FF3F0000FAFFFF08D0FFFF2F0000F9FF4B
:10028000FF07C0FFFF1F0000F8FFFF05B0FFFF0FD3
:100290000000F7FFFF04A0FFFF0E0000F6FFFF03C2
:1002A00090FFFF0C0000F4FFFF0280FFFF0B000037
:1002B000F3FFFF0170FFFF0A0000F2FFFF0060FF85
:1002C000FF090000F1FFEF0050FFFF080000F0FF02
:1002D000DF0030FFFF070000E0FFCF0020FFFF0638
:1002E0000000D0FFBF0010FFFF050000C0FF9F000F
:1002F00000FFFF040000B0FF8F0000FEFF020000BF
:10030000A0FF7F0000FDFF01000080FF6F000022C2
:100310002200000010221200000000000000000077
:1003200060880700000081880500000000000000D0
:1003300000000000E0FF0C000000F4FF07000000D8
:100340000000000000000000F3FF08000000F8FFBC
:10035000040000000000000000000000F7FF05009E
:100360000000FCFF00000000000000000000000092
:10037000FBFF01000010FFBF0000000000000000B4
:1003800000000000FECF00000040FF8F00000000D2
:100390000000000000000030FF9F00000080FF4FC1
:1003A000000000000000000000000070FF5F00007F
:1003B00000C0FF1F0000000000000000000000B0AF
:1003C000FF1F000000F1FF0B000000000000000014
:1003D000000000E0FF0C000000F4FF080000000037
:1003E00000000000000000F3FF09000000F8FF0417
:1003F0000000000000000000000000F7FF05000002
:1004000000FBFF010000000000000000000000FAF7
:10041000FF01000000FFCF00000000000000FDFF12
:10042000FFFFFFFFFFFFFFFFFFFFFFFFFFFFFF06D5
:100430000000FDFFFFFFFFFFFFFFFFFFFFFFFFFFCC
:10044000FFFFFF060000FDFFFFFFFFFFFFFFFFFFB5
:10045000FFFFFFFFFFFFFF060000FDFFFFFFFFFFA5
:10046000FFFFFFFFFFFFFFFFFFFFFF060000000091
:100470000000E0FF0C000000F3FF08000000000097
:10048000000000000000F3FF08000000F7FF040078
:1004900000000000000000000000F7FF0400000062
:1004A000FAFF010000000000000000000000FAFF59
:1004B00001000000FECF000000000000000000006E
:1004C0000000FECF00000030FF8F000000000000A1
:1004D000000000000030FF8F00000070FF4F0000A0
:1004E00000000000000000000060FF4F000000A0BE
:1004F000FF1F0000000000000000000000A0FF1F20
:10050000000000E0FF0C0000000000000000000000
:1005100000E0FF0C000000F3FF08000000000000F6
:100520000000000000F2FF08000000F7FF050000D7
:10053000000000000000000000F6FF04000000FAC8
:10054000FF01000000000000F4FFFFFFFFFFFFFFBE
:10055000FFFFFFFFFFFFFFFFFF0F0000F4FFFFFFA4
:10056000FFFFFFFFFFFFFFFFFFFFFFFFFF0F000089
:10057000F4FFFFFFFFFFFFFFFFFFFFFFFFFFFFFF96
:10058000FF0F0000F4FFFFFFFFFFFFFFFFFFFFFF74
:10059000FFFFFFFFFF0F000000000000A0FF1F0093
:1005A0000000E0FF0C000000000000000000000060
:1005B000E0FF0D000000F3FF080000000000000055
:1005C00000000000F3FF09000000F7FF0400000036
:1005D0000000000000000000F6FF05000000FBFF27
:1005E000010000000000000000000000FAFF02000F
:1005F0000000FECF0000000000000000000000002E
:10060000FEDF00000030FF8F00000000000000004F
:1006100000000020FFAF00000070FF5F000000003E
:100620000000000000000060FF6F000000A0FF1F3E
:100630000000000000000000000000A0FF2F0000EC
:1006400000E0FF0D0000000000000000000000D0EE
:10065000FF0E000000F3FF09000000000000000092
:10066000000000F2FF0A000000F6FF050000000095
:1006700000000000000000F6FF06000000FAFF0284
:10068000000000000000000000000084880200005C
:10069000008678000000000000000000000000005C
:1006A000000040FF2F0000000000000000000000DC
:1006B0000040FF2F000000000000000000000000CC
:1006C00040FF2F000000000000000000000000407C
:1006D000FF2F00000000000000000000000040FFAD
:1006E0002F00000000000000000000000040FF2F6D
:1006F00000000000000000000000000040FF2F008C
:10070000000000000000000000000040FF2F00007B
:10071000000000000000000030A7ECFFFFDE9C4757
:1007200001000000000071FDFFFFFFFFFFFFFFCF92
:100730002700000060FEFFFFFFFFFFFFFFFFFFFF3E
:10074000060000FAFFFFFFFFFFFFFFFFFFFFFF07AD
:1007500000A0FFFFFFAE87FF8F87DAFFFFFF0700D4
:10076000F8FFFF6E0140FF2F000082FEFF0720FF11
:10077000FFCF010040FF2F00000081FF0790FFFF27
:100780002E000040FF2F00000000B207E0FFFF092D
:10079000000040FF2F000000000000F2FFFF0500F6
:1007A0000040FF2F000000000000F3FFFF050000E5
:1007B00040FF2F000000000000F3FFFF0600004094
:1007C000FF2F000000000000F2FFFF0A000040FFC2
:1007D0002F000000000000E0FFFF3F000040FF2F5F
:1007E000000000000000A0FFFFEF040040FF2F000A
:1007F000000000000030FFFFFFBF0440FF2F00009B
:100800000000000000F9FFFFFFEF9AFF2F0000003B
:1008100000000000B0FFFFFFFFFFFFCF69020000F4
:1008200000000000F8FFFFFFFFFFFFFFDF490000AF
:1008300000000030FAFFFFFFFFFFFFFFFF5D000039
:1008400000000010B6FEFFFFFFFFFFFFFF1A0000D1
:100850000000000030B6FFFFFFFFFFFFCF010000E8
:100860000000000040FF6FC7FFFFFFFF090000000E
:1008700000000040FF2F0082FEFFFF2F000000005D
:10088000000040FF2F0000D2FFFF8F00000000009B
:100890000040FF2F000030FFFFCF000000000000ED
:1008A00040FF2F000000FCFFEF00000000000040B0
:1008B000FF2F000000F9FFEF00000000000040FFE4
:1008C0002F000000F9FFDF00000000000040FF2FB4
:1008D000000000FAFFCF34000000000040FF2F00AE
:1008E0000000FEFF8FF7190000000040FF2F0000FE
:1008F00060FFFF3FF7EF2800000040FF2F0000E4FB
:10090000FFFF0AF7FFFF6B020040FF2F0093FFFF7E
:10091000EF02F7FFFFFFEF8B97FF9FDAFFFFFF3E2E
:1009200000F7FFFFFFFFFFFFFFFFFFFFFFDF0300F9
:10093000B3FFFFFFFFFFFFFFFFFFFFFF19000000F6
:1009400072FBFFFFFFFFFFFFFFEF29000000000029
:100950001074B9DDFEFFCF7A040000000000000033
:1009600000000040FF2F0000000000000000000019
:10097000000040FF2F000000000000000000000009
:100980000040FF2F000000000000000000000000F9
:1009900040FF2F00000000000000000000000040A9
:1009A000FF2F00000000000000000000000040FFDA
:1009B0002F00000000000000000000000040FF2F9A
:1009C00000000000000000000000000040FF2F00B9
:1009D000000000000000000000000040FF2F0000A9
:1009E0000000000000000000000040FF2F00000099
:1009F0000000000000000000002088180000000037
:100A0000000000000062CAEDBC37000000000000DA
:100A10000000000010222200000000000000000082
:100A20000091FFFFFFFFFF3B0000000000000000FF
:100A300000E1FFCF00000000000000000020FDFFEB
:100A4000FFFFFFFFFF050000000000000000F8FFAF
:100A50005F000000000000000000E1FFFFFFFFFF5B
:100A6000FFFF4F0000000000000010FEFF0C000020
:100A700000000000000000FAFFFF391172FEFFDFE6
:100A80000100000000000080FFFF040000000000E3
:100A900000000040FFFF5F000000E2FFFF080000D1
:100AA00000000000F2FFBF00000000000000000096
:100AB00090FFFF0900000060FFFF0D000000000034
:100AC00000F9FF4F000000000000000000E0FFFF01
:100AD0000300000000FEFF4F000000000020FFFFA9
:100AE0000B000000000000000000F3FFEF0000001A
:100AF0000000FBFF7F000000000090FFFF030000EC
:100B000000000000000000F6FFCF0000000000F829
:100B1000FFAF0000000000F2FFAF00000000000087
:100B200000000000F8FFAF0000000000F6FFBF006B
:100B300000000000FAFF3F0000000000000000007D
:100B400000F8FF9F0000000000F6FFCF000000004B
:100B500030FFFF0A00000000000000000000F9FF65
:100B60009F0000000000F5FFDF00000000A0FFFF75
:100B70000200000000000000000000F9FF9F0000DC
:100B8000000000F5FFDF00000000F3FF9F00000001
:100B90000000000000000000F8FF9F0000000000BF
:100BA000F5FFCF00000000FBFF2F00000000000059
:100BB0000000000000F8FFAF0000000000F6FFBFDB
:100BC00000000040FFFF09000000000000000000DE
:100BD0000000F6FFCF0000000000F8FFAF000000AB
:100BE000B0FFFF020000000000000000000000F362
:100BF000FFEF0000000000FAFF7F000000F4FF8F0D
:100C0000000000000000000000000000F0FFFF03F3
:100C100000000000FEFF4F000000FCFF1E0000006F
:100C2000000000000000000000A0FFFF090000001D
:100C300050FFFF0E000050FFFF0800000000000002
:100C400000000000000040FFFF4F000000D1FFFF48
:100C5000080000C0FFEF0100000061DAFECE5A017B
:100C600000000000FCFFFF280061FEFFEF01000014
:100C7000F5FF8F00000070FEFFFFFFFF6E00000019
:100C800000E2FFFFFFFFFFFFFF5F000000FDFF1E10
:100C9000000010FBFFFFFFFFFFFF0A00000030FE17
:100CA000FFFFFFFFFFFF06000060FFFF070000B02F
:100CB000FFFFFFEFFFFFFFAF00000000A2FFFFFFFD
:100CC000FFFF3C000000D0FFEF010000F6FFFF4AED
:100CD0000041FCFFFF050000000073DBFECD480073
:100CE000000000F6FF7F000000FEFF8F000000A064
:100CF000FFFF0D00000000000000000000000000E9
:100D0000FDFF0D000050FFFF0D00000010FEFF3F33
:100D100000000000000000000000000070FFFF065F
:100D20000000A0FFFF0800000000FAFF8F00000095
:100D3000000000000000000000E1FFDF000000D024
:100D4000FFFF0400000000F6FFBF000000000000ED
:100D5000000000000000F7FF6F000000F1FFFF023D
:100D600000000000F4FFEF000000000000000000A1
:100D7000000010FEFF0D000000F3FFFF0000000068
:100D800000F2FFFF010000000000000000000080F2
:100D9000FFFF05000000F4FFEF0000000000F1FF7E
:100DA000FF0200000000000000000000E1FFCF0093
:100DB000000000F5FFEF0000000000F0FFFF03005F
:100DC000000000000000000000F8FF5F00000000CD
:100DD000F5FFEF0000000000F1FFFF03000000003E
:100DE000000000000010FEFF0C00000000F4FFEF08
:100DF0000000000000F1FFFF020000000000000002
:100E0000000090FFFF0400000000F3FFFF0000005F
:100E10000000F2FFFF01000000000000000000F2EF
:100E2000FFBF0000000000F1FFFF0200000000F41F
:100E3000FFEF00000000000000000000F9FF4F007D
:100E400000000000D0FFFF0400000000F6FFBF001C
:100E5000000000000000000020FFFF0B0000000069
:100E600000A0FFFF0800000000FAFF8F0000000054
:100E70000000000000A0FFFF03000000000050FF82
:100E8000FF0D00000010FEFF3F000000000000000A
:100E90000000F2FFAF00000000000000FEFF8F0026
:100EA0000000A0FFFF0C000000000000000000FA9E
:100EB000FF3F00000000000000F7FFFF4A0041FB79
:100EC000FFFF04000000000000000030FFFF0A00E8
:100ED000000000000000B0FFFFFFEFFFFFFF9F00DA
:100EE0000000000000000000B0FFFF020000000052
:100EF00000000010FBFFFFFFFFFFFF0900000000E4
:100F00000000000000F3FF9F000000000000000050
:100F10000081FEFFFFFFFF6E0000000000000000E8
:100F2000000021221200000000000000000000610B
:100F3000DAFECE59010000000000000020A6ECEF10
:100F4000BD380000000000000000000000000000AC
:100F50000030FAFFFFFFFFFF4C0000000000000020
:100F600000000000000000F8FFFFFFFFFFFFFF0987
:100F7000000000000000000000000000A0FFFFFFD4
:100F8000BECBFFFFFFAF000000000000000000002C
:100F90000000F8FFFF5E000081FFFFFF0800000077
:100FA0000000000000000030FFFFDF02000000F53D
:100FB000FFFF2F00000000000000000000B0FFFF56
:100FC0003F0000000090FFFF7F00000000000000D5
:100FD000000000F1FFFF0A0000000020FFFFCF002B
:100FE000000000000000000000F5FFFF0600000008
:100FF0000000FEFFDF00000000000000000000F71E
:10100000FFFF040000000000FCFFEF0000000000F4
:101010000000000000F7FFFF040000000000FDFFDB
:10102000DF00000000000000000000F7FFFF0600E6
:1010300000000000FEFFAF00000000000000000004
:1010400000F5FFFF0A0000000020FFFF7F00000006
:1010500000000000000000F1FFFF2F000000007002
:10106000FFFF2F00000000000000000000B0FFFFA5
:10107000CF01000000E1FFFF0A00000000000000B7
:1010800000000030FFFFFF1C000000FBFFEF02002C
:1010900000000000000000000000F7FFFFDF040078
:1010A000B2FFFF4E00000000000000000000000042
:1010B00090FFFFFF9F82FEFFEF0300000000000093
:1010C00000000000000000F7FFFFFFFFFFFF1A0015
:1010D0000000D0DDDD090000000000000040FEFF40
:1010E000FFFFFF3A00000000F0FFFF0B00000000D0
:1010F00000000050FDFFFFFFAF0000000000F0FF08
:10110000FF0B00000000000010F9FFFFFFFFFF09C8
:1011100000000000F0FFFF0A000000000000C1FF17
:10112000FF2BF8FFFFAF00000000F0FFFF090000F9
:1011300000000010FDFF9F0080FFFFFF0A0000007D
:10114000F0FFFF080000000000C0FFFF0A0000F7EA
:10115000FFFFAF000000F0FFFF070000000000F8F5
:10116000FFEF01000070FFFFFF0A0000F1FFFF0426
:101170000000000020FFFF7F00000000F7FFFFAF2E
:101180000000F2FFFF020000000080FFFF1F0000D0
:10119000000070FFFFFF0A00F3FFEF0000000000F7
:1011A000E0FFFF0B0000000000F7FFFFAF00F5FFBE
:1011B000AF0000000000F3FFFF0800000000006027
:1011C000FFFFFF0AF8FF6F0000000000F6FFFF07B7
:1011D000000000000000F6FFFFBFFCFF1F00000042
:1011E0000000F8FFFF0600000000000060FFFFFFA6
:1011F000FFFF0B0000000000F9FFFF0700000000E8
:10120000000000F6FFFFFFFF040000000000F9FFF0
:10121000FF080000000000000060FFFFFFCF00009B
:1012200000000000F7FFFF0B0000000000000000BE
:10123000F6FFFFCF010000000000F6FFFF1F0000D7
:1012400000000000000060FFFFFF1C000000000025
:10125000F2FFFF8F0000000000000000A0FFFFFF72
:10126000CF0100000000D0FFFFEF020000000000EF
:101270000000F8FFFFFFFF1C0000000070FFFFFFF1
:101280001C00000000000090FFFFFBFFFFCF0100EB
:10129000000000FDFFFFDF030000000040FCFFBF77
:1012A00050FFFFFF1C00000000F4FFFFFFAF150020
:1012B0000062FCFFFF1C00F5FFFFCF010000006093
:1012C000FFFFFFFFFFDEEDFFFFFFBF010040FFFF5D
:1012D000FF1D00000000F7FFFFFFFFFFFFFFFFFF04
:1012E00009000000F4FFFFDF0100000030FDFFFFF8
:1012F000FFFFFFFFFF5D0000000040FFFFFF2D002C
:1013000000000061FDFFFFFFFFFF6D000000000017
:1013100000F4FFFFDF020000000040B7EDEFBD3733
:10132000000000000000001011111101F2FFFF4F3A
:10133000F1FFFF3FF0FFFF2FE0FFFF1FD0FFFF0F88
:10134000C0FFFF0EB0FFFF0CA0FFFF0B90FFFF0AD6
:1013500070FFFF0960FFFF0850FFFF0740FFFF0617
:1013600030FFFF0520FFFF0410FFFF0200FFFF0119
:10137000002222000000000000F3FFFFAF00000089
:101380000010FDFFFF0B00000000B0FFFFBF0000DA
:10139000000000F8FFFF1D0000000030FFFFEF021B
:1013A00000000000D0FFFF4F0000000000F8FFFF2A
:1013B000090000000020FEFFDF0100000000A0FF88
:1013C000FF4F0000000000F3FFFF0B0000000000D3
:1013D000FAFFFF030000000020FFFF9F0000000055
:1013E0000090FFFF2F0000000000E0FFFF0B000057
:1013F000000000F5FFFF050000000000FAFFDF001D
:101400000000000010FEFF9F000000000040FFFFF2
:101410004F000000000080FFFF0E0000000000B041
:10142000FFFF0A0000000000E0FFFF0600000000D0
:1014300000F2FFFF030000000000F4FFFF000000C7
:10144000000000F6FFDF000000000000F7FFBF0013
:101450000000000000F8FF9F000000000000F9FFFE
:101460008F000000000000FAFF7F00000000000075
:10147000FAFF7F000000000000FAFF7F000000007C
:101480000000FAFF7F000000000000F9FF8F00005D
:1014900000000000F8FF9F000000000000F7FFAF11
:1014A000000000000000F6FFCF000000000000F484
:1014B000FFEF000000000000F2FFFF02000000004C
:1014C00000E0FFFF050000000000B0FFFF08000083
:1014D00000000080FFFF0D000000000040FFFF2F14
:1014E000000000000010FEFF7F000000000000FA76
:1014F000FFCF000000000000F5FFFF030000000028
:1015000000E0FFFF09000000000090FFFF1E000048
:1015100000000020FFFF7F000000000000FAFFEF46
:10152000010000000000F3FFFF080000000000A021
:10153000FFFF2F000000000020FEFFBF00000000A2
:101540000000F8FFFF060000000000D0FFFF2E00A3
:101550000000000030FFFFCF000000000000F8FF97
:10156000FF0A0000000000B0FFFF7F000000000045
:1015700010FDFFFF070000000000F3FFFF7FE4FF06
:10158000FF6F000000000040FEFFFF0300000000AE
:1015900000F4FFFF2E000000000060FFFFBF00000E
:1015A00000000000F9FFFF060000000000C0FFFF80
:1015B0002E000000000030FFFFBF00000000000010
:1015C000F7FFFF050000000000D0FFFF0D00000046
:1015D000000050FFFF6F000000000000FBFFDF0075
:1015E0000000000000F3FFFF050000000000C0FF46
:1015F000FF0C000000000050FFFF3F000000000053
:1016000000FEFF8F000000000000F8FFDF00000078
:10161000000000F3FFFF040000000000E0FFFF08EF
:10162000000000000090FFFF0B000000000050FFD2
:10163000FF0E000000000020FFFF3F000000000040
:1016400000FEFF5F000000000000FBFF7F000000C5
:10165000000000F9FF9F000000000000F7FFBF003E
:101660000000000000F6FFCF000000000000F4FFC3
:10167000DF000000000000F4FFDF000000000000B9
:10168000F3FFEF000000000000F4FFEF0000000097
:101690000000F4FFDF000000000000F5FFDF0000A5
:1016A00000000000F6FFCF000000000000F7FFBFC1
:1016B000000000000000F9FF9F000000000000FB98
:1016C000FF7F000000000000FEFF5F000000000040
:1016D00020FFFF3F000000000060FFFF0E00000041
:1016E0000000B0FFFF0B0000000000F1FFFF08004A
:1016F00000000000F5FFFF040000000000FAFFDF1B
:10170000000000000010FFFF8F000000000070FFCD
:10171000FF3F0000000000D0FFFF0C0000000000B1
:10172000F6FFFF050000000000FDFFDF00000000E5
:101730000070FFFF6F0000000000E1FFFF0D0000E0
:10174000000000FAFFFF050000000050FFFFBF008F
:1017500000000000E2FFFF2E0000000000FCFFFF81
:101760000600000000A0FFFFBF0000000000F8FF1F
:10177000FF2E0000000070FFFFFF0400000000F7D4
:10178000FFFF6F0000000000000000000000FBFFF2
:1017900000000000000000000000000000FBFF004F
:1017A000000000000000000000000000FBEF00004F
:1017B0000000000000000000000000FBEF0000003F
:1017C00000000000400400000000FAEF00000000EC
:1017D000200500D0AF02000000FADF00000010E793
:1017E0002F00F7FF7E000000FADF000000D5FFAFFA
:1017F00000FDFFFF4D0000FADF0000B2FFFFEF0227
:1018000070FEFFFF2A00F9DF0081FFFFFF190000D3
:1018100081FFFFFF18F9CF60FEFFFF2A00000000E4
:10182000A2FFFFDFFCDFFCFFFF4C00000000000018
:10183000B3FFFFFFFFFFFF5D00000000000000009E
:10184000D5FFFFFFFF6E0000000000000000000059
:10185000F7FFFFAF0100000000000000000070FE75
:10186000FFFFFF19000000000000000050FDFFFF17
:10187000FFFFEF1700000000000040FCFFFFFEFF2D
:10188000FFFFDF060000000020FAFFFF4DFADFB384
:10189000FFFFCF04000010F9FFFF7E00FADF00D544
:1018A000FFFFBF0300E7FFFFAF0200FADF0010F801
:1018B000FFFFAF01FBFFDF040000FADF000020FBA9
:1018C000FFDF00F2EF07000000FAEF00000050FD1C
:1018D0005F00802A00000000FBEF00000000810B89
:1018E00000000000000000FBEF000000000000000E
:1018F000000000000000FBEF0000000000000000FE
:101900000000000000FBFF000000000000000000DD
:1019100000000000FBFF00000000000000000000CD
:1019200000000065660000000000000000000000EC
:1019300000000000FDFF0F0000000000000000009C
:1019400000000000000000FDFF0F0000000000008C
:1019500000000000000000000000FDFF0F0000007C
:1019600000000000000000000000000000FDFF0F6C
:101970000000000000000000000000000000000067
:10198000FDFF0F000000000000000000000000004C
:10199000000000FDFF0F000000000000000000003C
:1019A000000000000000FDFF0F000000000000002C
:1019B000000000000000000000FDFF0F000000001C
:1019C000000000000000000000000000FDFF0F000C
:1019D000000000000000000000000000000000FD0A
:1019E000FF0F0000000000000000000000000000E9
:1019F0000000FDFF0F0000000000000000000000DC
:101A00000000000000FDFF0F0000000000000000CB
:101A10000000000000000000FDFF0F0000000000BB
:101A20000000000000000000000000FDFF0F0000AB
:101A30000000000000000000000000000000FDFFAA
:101A40000F00000000000000000000000000000087
:101A500000FDFF0F0000000000000000FDFFFFFF81
:101A6000FFFFFFFFFFFFFFFFFFFFFFFFFFFF0EFD79
:101A7000FFFFFFFFFFFFFFFFFFFFFFFFFFFFFFFF76
:101A8000FF0EFDFFFFFFFFFFFFFFFFFFFFFFFFFF59
:101A9000FFFFFFFF0EFDFFFFFFFFFFFFFFFFFFFF49
:101AA000FFFFFFFFFFFFFF0EB9BBBBBBBBBBBBBB59
:101AB000FFFFBFBBBBBBBBBBBBBB0B000000000041
:101AC000000000FDFF0F000000000000000000000B
:101AD000000000000000FDFF0F00000000000000FB
:101AE000000000000000000000FDFF0F00000000EB
:101AF000000000000000000000000000FDFF0F00DB
:101B0000000000000000000000000000000000FDD8
:101B1000FF0F0000000000000000000000000000B7
:101B20000000FDFF0F0000000000000000000000AA
:101B30000000000000FDFF0F00000000000000009A
:101B40000000000000000000FDFF0F00000000008A
:101B50000000000000000000000000FDFF0F00007A
:101B60000000000000000000000000000000FDFF79
:101B70000F00000000000000000000000000000056
:101B800000FDFF0F0000000000000000000000004A
:101B900000000000FDFF0F0000000000000000003A
:101BA00000000000000000FDFF0F0000000000002A
:101BB00000000000000000000000FDFF0F0000001A
:101BC00000000000000000000000000000FDFF0F0A
:101BD0000000000000000000000000000000000005
:101BE000FDFF0F000000000000000000005088888A
:101BF00088060000D0FFFFFF060000F2FFFFEF01A4
:101C00000000F6FFFF9F000000FAFFFF2F0000001A
:101C1000FDFFFF0B000020FFFFFF04000060FFFF3F
:101C2000DF000000A0FFFF7F000000E0FFFF1E00BC
:101C30000000F3FFFF09000000F7FFFF03000000B2
:101C4000FBFFBF00000000FEFF5F00000040FFFF41
:101C50000D00000080FFFF07000000C0FFFF010033
:101C60000000F1FFAF00000000F4FF3F00000000A3
:101C7000F8FF0C0000000053555555555555555566
:101C800004F8FFFFFFFFFFFFFFFF0CF8FFFFFFFF60
:101C9000FFFFFFFF0CF8FFFFFFFFFFFFFFFF0CF848
:101CA000FFFFFFFFFFFFFFFF0CF8FFFFFFFFFFFF3E
:101CB000FFFF0C74777737F9FFFF6FF9FFFF6FF9BC
:101CC000FFFF6FF9FFFF6FF9FFFF6FF9FFFF6FF97C
:101CD000FFFF6FF9FFFF6F00000000000000000031
:101CE00000F2FFEF0100000000000000000000F81B
:101CF000FF9F0000000000000000000000FDFF4FFB
:101D00000000000000000000000040FFFF0D000088
:101D10000000000000000000A0FFFF07000000001E
:101D2000000000000000F1FFFF02000000000000C2
:101D300000000000F6FFBF000000000000000000EF
:101D40000000FCFF5F000000000000000000003009
:101D5000FFFF0E0000000000000000000090FFFFE9
:101D60000900000000000000000000E0FFFF030089
:101D7000000000000000000000F5FFCF00000000A0
:101D800000000000000000FBFF6F000000000000EA
:101D90000000000020FFFF1F000000000000000006
:101DA000000070FFFF0A00000000000000000000BB
:101DB000D0FFFF0400000000000000000000F3FF5F
:101DC000DF0000000000000000000000F9FF8F00AD
:101DD00000000000000000000010FEFF2F000000C7
:101DE0000000000000000060FFFF0B00000000008A
:101DF0000000000000B0FFFF06000000000000002F
:101E0000000000F2FFEF01000000000000000000F1
:101E100000F8FF9F0000000000000000000000FD2F
:101E2000FF3F0000000000000000000040FFFF0D29
:101E300000000000000000000000A0FFFF070000FD
:101E40000000000000000000F1FFFF0100000000A2
:101E5000000000000000F6FFAF00000000000000DE
:101E600000000000FCFF5F00000000000000000018
:101E70000030FFFF0E0000000000000000000080A6
:101E8000FFFF0800000000000000000000E0FFFF6E
:101E90000200000000000000000000F5FFCF00007D
:101EA000000000000000000000FAFF6F00000000CA
:101EB00000000000000010FFFF1E000000000000F6
:101EC0000000000070FFFF0A00000000000000009A
:101ED0000000D0FFFF040000000000000000000030
:101EE000F3FFDF0000000000000000000000F9FF29
:101EF0007F0000000000000000000010FEFF2F0027
:101F000000000000000000000050FFFF0B00000078
:101F100000000000000000B0FFFF0500000000000E
:101F20000000000000F2FFEF0000000000000000D1
:101F3000000000F8FF9F000000000000000000000B
:101F400000FDFF3F0000000000000000000040FF17
:101F5000FF0C00000000000000000000A0FFFF07D1
:101F600000000000000000000000E1FFFF01000091
:101F70000000000000000000F6FFAF0000000000BD
:101F8000000000000000FCFF4F0000000000000007
:101F900000000020FFFF0D00000000000000000016
:101FA0000080FFFF0800000000000000000000E0CB
:101FB000FFFF0200000000000000000000F5FFBF6E
:101FC0000000000000000000000000FAFF6F0000A9
:101FD000000000000000000000000000000084CAB3
:101FE000DDBC5901000000000000000010E8FFFF08
:101FF000FFFFFF9F0200000000000000E5FFFFFF61
:10200000FFFFFFFF7F00000000000070FFFFFFFFE9
:10201000FFFFFFFFFF0A0000000000F6FFFFFFFFC9
:10202000FFFFFFFFFF9F0000000030FFFFFFAF2515
:102030000141F9FFFFFF05000000B0FFFFDF0300D3
:10204000000020FCFFFF1E000000F5FFFF2E000037
:10205000000000C1FFFF7F000000FBFFFF05000044
:1020600000000020FFFFDF000020FFFFCF00000086
:1020700000000000F9FFFF050070FFFF5F00000097
:1020800000000000F4FFFF0A00B0FFFF1F00000087
:1020900000000000D0FFFF0E00E0FFFF0C0000007A
:1020A0000000000090FFFF2F00F3FFFF0900000079
:1020B0000000000060FFFF6F00F5FFFF0700000059
:1020C0000000000040FFFF8F00F8FFFF0500000048
:1020D0000000000020FFFFBF00FAFFFF0400000027
:1020E0000000000000FFFFCF00FBFFFF0300000027
:1020F0000000000000FEFFEF00FCFFFF01000000F9
:102100000000000000FDFFFF00FDFFFF01000000D8
:102110000000000000FCFFFF01FEFFFF00000000C8
:102120000000000000FCFFFF02FEFFFF00000000B7
:102130000000000000FCFFFF02FFFFFF00000000A6
:102140000000000000FBFFFF03FFFFFF0000000096
:102150000000000000FBFFFF03FEFFFF0000000087
:102160000000000000FCFFFF02FEFFFF0000000077
:102170000000000000FCFFFF02FDFFFF0000000068
:102180000000000000FCFFFF01FCFFFF0100000059
:102190000000000000FDFFFF00FBFFFF0200000049
:1021A0000000000000FEFFEF00FAFFFF0300000048
:1021B0000000000000FFFFDF00F8FFFF0400000048
:1021C0000000000010FFFFBF00F6FFFF0600000048
:1021D0000000000040FFFF9F00F3FFFF0900000028
:1021E0000000000060FFFF6F00F1FFFF0B00000028
:1021F0000000000090FFFF3F00C0FFFF1F00000035
:1022000000000000D0FFFF0E0080FFFF5F00000015
:1022100000000000F3FFFF0B0030FFFFBF000000D5
:1022200000000000F8FFFF060000FCFFFF030000B5
:1022300000000010FEFFEF010000F6FFFF1D000090
:10224000000000B0FFFF9F000000D0FFFFCF0200A2
:10225000000010FAFFFF2E00000040FFFFFF8E037A
:102260000020E7FFFFFF0700000000F8FFFFFFFF6F
:10227000EEFFFFFFFFBF000000000090FFFFFFFF29
:10228000FFFFFFFFFF1B000000000000F7FFFFFF44
:10229000FFFFFFFF9F0000000000000020FAFFFF8B
:1022A000FFFFFFBF03000000000000000010A6ECCD
:1022B000FFDE7A0200000000000000000000FCFFCA
:1022C0000D000000000000000000FEFF0D000000F7
:1022D000000000000060FFFF0D0000000000000093
:1022E00000E2FFFF0D0000000000000050FEFFFFB5
:1022F0000D00000000114296FDFFFFFF0D000000E1
:1023000000FDFFFFFFFFFFFF0D00000000FDFFFFCE
:10231000FFFFFFFF0D00000000FDFFFFFFFFFFFFBD
:102320000D00000000FDFFFFFFFFFFFF0D0000009C
:102330000000000000C0FFFF0D00000000000000D2
:1023400000C0FFFF0D0000000000000000C0FFFF04
:102350000D0000000000000000C0FFFF0D000000A5
:102360000000000000C0FFFF0D00000000000000A2
:1023700000C0FFFF0D0000000000000000C0FFFFD4
:102380000D0000000000000000C0FFFF0D00000075
:102390000000000000C0FFFF0D0000000000000072
:1023A00000C0FFFF0D0000000000000000C0FFFFA4
:1023B0000D0000000000000000C0FFFF0D00000045
:1023C0000000000000C0FFFF0D0000000000000042
:1023D00000C0FFFF0D0000000000000000C0FFFF74
:1023E0000D0000000000000000C0FFFF0D00000015
:1023F0000000000000C0FFFF0D0000000000000012
:1024000000C0FFFF0D0000000000000000C0FFFF43
:102410000D0000000000000000C0FFFF0D000000E4
:102420000000000000C0FFFF0D00000000000000E1
:1024300000C0FFFF0D0000000000000000C0FFFF13
:102440000D0000000000000000C0FFFF0D000000B4
:102450000000000000C0FFFF0D00000000000000B1
:1024600000C0FFFF0D0000000000000000C0FFFFE3
:102470000D0000000000000000C0FFFF0D00000084
:102480000000000000C0FFFF0D00000000868888EB
:1024900088D8FFFF8E88888868FDFFFFFFFFFFFF59
:1024A000FFFFFFFFCFFDFFFFFFFFFFFFFFFFFFFF6E
:1024B000CFFDFFFFFFFFFFFFFFFFFFFFCFFDFFFF90
:1024C000FFFFFFFFFFFFFFFFCF0000002085CBEDE8
:1024D000EFBD580100000000000000A5FEFFFFFF57
:1024E000FFFFFF9E020000000010E8FFFFFFFFFF5C
:1024F000FFFFFFFF7F0000000030FFFFFFFFFFFF37
:10250000FFFFFFFFFF1B00000030FFFFFFFFFFFF8B
:10251000FFFFFFFFFFBF00000030FFFFFFBE58249A
:102520003296FEFFFFFF08000030FFFF5B00000057
:10253000000091FFFFFF2F000030FF290000000086
:10254000000000F6FFFF8F0000303B00000000009D
:10255000000000A0FFFFDF000000000000000000FE
:1025600000000020FFFFFF0200000000000000004C
:1025700000000000FCFFFF0400000000000000005D
:1025800000000000FAFFFF0500000000000000004E
:1025900000000000F9FFFF0600000000000000003E
:1025A00000000000FAFFFF0500000000000000002E
:1025B00000000000FCFFFF0400000000000000001D
:1025C00000000000FEFFFF0100000000000000000E
:1025D00000000040FFFFDF000000000000000000DE
:1025E000000000A0FFFF8F000000000000000000BE
:1025F000000000F2FFFF2F000000000000000000BC
:10260000000000FBFFFF0A000000000000000000C7
:10261000000060FFFFFF020000000000000000005B
:102620000000F3FFFF8F000000000000000000002A
:102630000020FDFFFF0C0000000000000000000073
:1026400000C1FFFFEF0200000000000000000000DA
:1026500000FBFFFF4F000000000000000000000032
:10266000A0FFFFFF060000000000000000000000C7
:10267000FAFFFF7F0000000000000000000000A043
:10268000FFFFFF070000000000000000000000FA4C
:10269000FFFF7F0000000000000000000000B0FF0E
:1026A000FFFF060000000000000000000010FBFF1C
:1026B000FF5F0000000000000000000000C1FFFFFD
:1026C000FF050000000000000000000020FDFFFFEB
:1026D0004E0000000000000000000000E3FFFFEFDC
:1026E000030000000000000000000050FFFFFF2D6D
:1026F0000000000000000000000000F7FFFFCF0115
:102700000000000000000000000090FFFFFF1B0021
:1027100000000000000000000010FBFFFF9F000011
:10272000000000000000000000C1FFFFFF070000E4
:10273000000000000000000000F4FFFF6F11111105
:10274000111111111111111100F4FFFFFFFFFFFF13
:10275000FFFFFFFFFFFFFFFF04F4FFFFFFFFFFFF8F
:10276000FFFFFFFFFFFFFFFF04F4FFFFFFFFFFFF7F
:10277000FFFFFFFFFFFFFFFF04F4FFFFFFFFFFFF6F
:10278000FFFFFFFFFFFFFFFF04F4FFFFFFFFFFFF5F
:10279000FFFFFFFFFFFFFFFF040000001074CAED02
:1027A000EFCD7A0400000000000083FCFFFFFFFF74
:1027B000FFFFEF1800000000C5FFFFFFFFFFFFFF56
:1027C000FFFFEF06000000FDFFFFFFFFFFFFFFFF21
:1027D000FFFF9F000000FDFFFFFFFFFFFFFFFFFF68
:1027E000FFFF090000FDFFFFCF58232274FBFFFF0E
:1027F000FF5F0000FDFF7D020000000020FBFFFFE7
:10280000DF0000FD5D00000000000000A0FFFFFFF2
:1028100003007C000000000000000010FEFFFF0726
:102820000000000000000000000000F8FFFF0A00A8
:1028300000000000000000000000F5FFFF0A00009B
:10284000000000000000000000F4FFFF0A0000008C
:102850000000000000000000F5FFFF08000000007D
:1028600000000000000000F7FFFF0500000000006E
:10287000000000000000FDFFEF010000000000006C
:102880000000000060FFFF7F00000000000000006B
:10289000000000F5FFFF0C00000000000000000039
:1028A0000091FFFFDF02000000000000000031A6E1
:1028B000FFFFFF1C00000000000000F0FFFFFFFF13
:1028C000FF8E0000000000000000F0FFFFFFFF7B14
:1028D000010000000000000000F0FFFFFFFF6A01A0
:1028E0000000000000000000F0FFFFFFFFFFAF034B
:1028F00000000000000000E0EEFEFFFFFFFF8F0081
:1029000000000000000000000041C7FFFFFF0B00B7
:1029100000000000000000000000E4FFFF9F000036
:1029200000000000000000000020FEFFFF04000087
:10293000000000000000000000F5FFFF0C00000098
:102940000000000000000000D0FFFF2F000000008A
:102950000000000000000090FFFF6F00000000007A
:1029600000000000000070FFFF8F0000000000006A
:10297000000000000060FFFF9F000000000000005A
:102980000000000060FFFF9F00000000000000004A
:1029900000000070FFFF9F0000000000000000002A
:1029A0000000A0FFFF7F000000000000000000000A
:1029B00000E1FFFF4F0000000000000000000000E9
:1029C000F7FFFF0EC104000000000000000030FE11
:1029D000FFFF09F2BF0400000000000000E3FFFF5A
:1029E000EF02F2FFDF27000000000082FFFFFF8FF1
:1029F00000F2FFFFFF9C462343B7FFFFFFFF0B00E2
:102A0000F2FFFFFFFFFFFFFFFFFFFFFFDF0100F20D
:102A1000FFFFFFFFFFFFFFFFFFFFFF1C000070FD38
:102A2000FFFFFFFFFFFFFFFFFF8F0000000030C828
:102A3000FFFFFFFFFFFFFF8E0200000000000041CC
:102A4000A7DCFEDEAC370000000000000000000044
:102A50000000000000101111010000000000000043
:102A6000000000000000E3FFFF0C00000000000079
:102A700000000000000010FDFFFF0C00000000003F
:102A800000000000000000C0FFFFFF0C000000007D
:102A90000000000000000000FAFFFFFF0C00000033
:102AA000000000000000000080FFFFFFFF0C00009E
:102AB000000000000000000000F5FFFFFFFF0C0019
:102AC00000000000000000000030FFFFFFFFFF0CCF
:102AD00000000000000000000000E2FFFFDBFFFF3D
:102AE0000C00000000000000000010FCFFCFD1FF30
:102AF000FF0C000000000000000000B0FFFF2ED01F
:102B0000FFFF0C000000000000000000F9FFFF03C1
:102B1000D0FFFF0C000000000000000060FFFF5F1E
:102B200000D0FFFF0C0000000000000000F4FFFFD9
:102B30000700D0FFFF0C0000000000000020FEFF97
:102B4000AF0000D0FFFF0C00000000000000D1FF2C
:102B5000FF0C0000D0FFFF0C00000000000000FC94
:102B6000FFDF010000D0FFFF0C000000000000A00C
:102B7000FFFF3E000000D0FFFF0C0000000000003F
:102B8000F7FFFF04000000D0FFFF0C000000000072
:102B900050FFFF6F00000000D0FFFF0C000000009E
:102BA00000E3FFFF0900000000D0FFFF0C00000061
:102BB0000020FEFFBF0000000000D0FFFF0C00005F
:102BC0000000C1FFFF1C0000000000D0FFFF0C0050
:102BD000000000FAFFEF020000000000D0FFFF0C31
:102BE00000000080FFFF3F000000000000D0FFFF5A
:102BF0000C000000F6FFFF05000000000000D0FF01
:102C0000FF0C000000FBFF8F00000000000000D060
:102C1000FFFF0C000000FBFF0A00000000000000A6
:102C2000D0FFFF0C000000FBFFFFFFFFFFFFFFFFD7
:102C3000FFFFFFFFFFFFFF4FFBFFFFFFFFFFFFFF58
:102C4000FFFFFFFFFFFFFFFF4FFBFFFFFFFFFFFF48
:102C5000FFFFFFFFFFFFFFFFFF4FFBFFFFFFFFFF38
:102C6000FFFFFFFFFFFFFFFFFFFF4FB8BBBBBBBB7B
:102C7000BBBBBBBBBBEBFFFFBEBBBB3B0000000055
:102C8000000000000000D0FFFF0C0000000000006A
:102C900000000000000000D0FFFF0C00000000005A
:102CA0000000000000000000D0FFFF0C000000004A
:102CB000000000000000000000D0FFFF0C0000003A
:102CC00000000000000000000000D0FFFF0C00002A
:102CD0000000000000000000000000D0FFFF0C001A
:102CE000000000000000000000000000D0FFFF0C0A
:102CF00000000000000000000000000000D0FFFF06
:102D00000C00000000000000000000000000D0FFE8
:102D1000FF0C00000000000000000000000000D0D8
:102D2000FFFF0C0000000000000000000000000099
:102D3000D0FFFF0C000000000000000000000000B9
:102D400000D0FFFF0C00000000FAFFFFFFFFFFFFB5
:102D5000FFFFFFFFFFFF0900FAFFFFFFFFFFFFFF7D
:102D6000FFFFFFFFFF0900FAFFFFFFFFFFFFFFFF6D
:102D7000FFFFFFFF0900FAFFFFFFFFFFFFFFFFFF5D
:102D8000FFFFFF0900FAFFFFFFFFFFFFFFFFFFFF4D
:102D9000FFFF0900FAFFFF33333333333333333369
:102DA000330200FAFFFF00000000000000000000F6
:102DB0000000FAFFFF00000000000000000000001B
:102DC00000FAFFFF0000000000000000000000000B
:102DD000FAFFFF000000000000000000000000FA01
:102DE000FFFF000000000000000000000000FAFFEC
:102DF000FF000000000000000000000000FAFFFFDC
:102E0000000000000000000000000000FAFFFF00CA
:102E10000000000000000000000000FAFFFF0000BA
:102E200000000000000000000000FAFFFF000000AA
:102E3000000000000000000000FAFFFF000000009A
:102E40000000000000000000FAFFFFEDFFFFDEAC15
:102E500047000000000000FAFFFFFFFFFFFFFFFF39
:102E60009E0200000000FAFFFFFFFFFFFFFFFFFFD1
:102E70008F01000000FAFFFFFFFFFFFFFFFFFFFFD2
:102E80002C000000FAFFFFFFEEFFFFFFFFFFFFDF58
:102E9000010000B9692401000042B7FFFFFFFF0BEA
:102EA00000000000000000000000A2FFFFFF5F0024
:102EB00000000000000000000000F5FFFFDF000040
:102EC00000000000000000000070FFFFFF03000092
:102ED000000000000000000000FCFFFF07000000F1
:102EE0000000000000000000F7FFFF0A00000000E3
:102EF00000000000000000F3FFFF0C0000000000D5
:102F0000000000000000F2FFFF0D000000000000C4
:102F10000000000000F1FFFF0D00000000000000B5
:102F200000000000F2FFFF0C0000000000000000A5
:102F3000000000F4FFFF0B00000000000000000094
:102F40000000F8FFFF080000000000000000000083
:102F500000FDFFFF05000000000000000000005021
:102F6000FFFFEF0076000000000000000000E2FF1D
:102F7000FF8F00F86D0100000000000020FDFFFF42
:102F80001E00F8FF9E030000000010E6FFFFFF0890
:102F900000F8FFFFDF7A343264E9FFFFFFBF000073
:102FA000F8FFFFFFFFFFFFFFFFFFFFFF1D0000F81F
:102FB000FFFFFFFFFFFFFFFFFFFFBF010000D4FF88
:102FC000FFFFFFFFFFFFFFFFEF070000000083FD93
:102FD000FFFFFFFFFFFFEF1800000000000020755B
:102FE000CAEDFFDE8B0400000000000000000000BE
:102FF000000051B8EDFEEF8C04000000000000005E
:1030000000B5FFFFFFFFFFFF0A0000000000000007
:10301000D6FFFFFFFFFFFFFF0A000000000000B225
:10302000FFFFFFFFFFFFFFFF0A000000000040FE60
:10303000FFFFFFFFFFFFFFFF0A0000000000F5FF9A
:10304000FFFFEF6A342274EA0A0000000040FFFF2D
:10305000FFCF0400000000100300000000E1FFFFAC
:10306000FF060000000000000000000000FBFFFF62
:103070004E000000000000000000000050FFFFFFB5
:10308000030000000000000000000000D0FFFF6F00
:10309000000000000000000000000000F6FFFF0A32
:1030A000000000000000000000000000FCFFFF0323
:1030B000000000000000000000000030FFFFAF0033
:1030C000000000000000000000000080FFFF4F0033
:1030D0000000000000000000000000C0FFFF0E0024
:1030E0000000000000000000000000F1FFFF0A00E7
:1030F0000000000000000000000000F4FFFF0700D7
:1031000051C9EDEFCD690200000000F7FFFF05A3F4
:10311000FFFFFFFFFFFFAF03000000F9FFFFA5FF68
:10312000FFFFFFFFFFFFFF8F000000FBFFFFFFFF20
:10313000FFFFFFFFFFFFFFFF1B0000FCFFFFFFFF84
:10314000FFEFDDFEFFFFFFFFCF0100FDFFFFFFCF21
:103150004701000073FDFFFFFF0900FEFFFF9E0215
:10316000000000000070FFFFFF3F00FEFFFF0100B6
:10317000000000000000F4FFFFBF00FFFFEF0000B1
:1031800000000000000070FFFFFF02FEFFEF0000E4
:1031900000000000000000FDFFFF06FEFFEF000042
:1031A00000000000000000F9FFFF09FDFFFF000024
:1031B00000000000000000F4FFFF0BFCFFFF000018
:1031C00000000000000000F3FFFF0CFAFFFF020008
:1031D00000000000000000F1FFFF0DF8FFFF0300FA
:1031E00000000000000000F1FFFF0DF6FFFF0600E9
:1031F00000000000000000F2FFFF0CF2FFFF0900DA
:1032000000000000000000F4FFFF0AD0FFFF0E00E6
:1032100000000000000000F7FFFF0890FFFF5F00C4
:1032200000000000000000FBFFFF0430FFFFDF0094
:1032300000000000000020FFFFEF0000FCFFFF0780
:10324000000000000000B0FFFF8F0000F4FFFF6FE0
:10325000000000000000F7FFFF1E0000B0FFFFFFAE
:10326000080000000091FFFFFF06000020FEFFFFA6
:10327000DF27000073FEFFFFAF00000000E3FFFF49
:10328000FFFFDEEDFFFFFFFF0B0000000030FDFF42
:10329000FFFFFFFFFFFFFFAF000000000000B1FFD6
:1032A000FFFFFFFFFFFFEF0600000000000000C46B
:1032B000FFFFFFFFFFEF180000000000000000000C
:1032C00062CAFEEF9C150000000000313333333337
:1032D0003333333333333333333301F7FFFFFFFFFC
:1032E000FFFFFFFFFFFFFFFFFFFF05F7FFFFFFFFF0
:1032F000FFFFFFFFFFFFFFFFFFFF05F7FFFFFFFFE0
:10330000FFFFFFFFFFFFFFFFFFFF05F7FFFFFFFFCF
:10331000FFFFFFFFFFFFFFFFFFFF05F7FFFFFFFFBF
:10332000FFFFFFFFFFFFFFFFFFFF050000000000A2
:1033300000000000000000D0FFFF050000000000BA
:1033400000000000000000F7FFFF04000000000084
:1033500000000000000010FEFFCF00000000000091
:1033600000000000000080FFFF4F00000000000090
:10337000000000000000E2FFFF0B00000000000062
:10338000000000000000F9FFFF0300000000000043
:10339000000000000020FFFFAF0000000000000060
:1033A0000000000000A0FFFF3F0000000000000040
:1033B0000000000000F3FFFF0A0000000000000012
:1033C0000000000000FBFFFF020000000000000002
:1033D0000000000050FFFF9F000000000000000000
:1033E00000000000C0FFFF2E0000000000000000F1
:1033F00000000000F6FFFF080000000000000000D1
:1034000000000000FDFFEF010000000000000000D0
:1034100000000070FFFF7F000000000000000000BF
:10342000000000E1FFFF1E0000000000000000009F
:10343000000000F8FFFF070000000000000000008F
:10344000000020FEFFDF0000000000000000000080
:10345000000090FFFF6F000000000000000000006F
:103460000000F2FFFF0D000000000000000000005F
:103470000000FAFFFF05000000000000000000004F
:103480000030FFFFCF00000000000000000000003F
:1034900000B0FFFF4F00000000000000000000002F
:1034A00000F5FFFF0B00000000000000000000001E
:1034B00000FCFFFF0400000000000000000000000E
:1034C00060FFFFBF000000000000000000000000DF
:1034D000D0FFFF3F000000000000000000000000DF
:1034E000F7FFFF0A000000000000000000000010CD
:1034F000FEFFFF020000000000000000000000804E
:10350000FFFF9F000000000000000000000000F22C
:10351000FFFF2F000000000000000000000000F985
:10352000FFFF08000000000000000000000030FF66
:10353000FFEF010000000000000000000000A0FFFD
:10354000FF8F000000000000000000000000F4FFFA
:10355000FF1E000000000000000000000000FCFF53
:10356000FF07000000000000000000000050FFFF07
:10357000DF010000000000000000000000D0FFFF9D
:103580006F000000000000000000000000F6FFFFD8
:103590000D0000000000000000000000000000001E
:1035A00063CAEDEFBD58010000000000000000C636
:1035B000FFFFFFFFFFFF9E02000000000000C3FFAF
:1035C000FFFFFFFFFFFFFF7F000000000060FFFF25
:1035D000FFFFFFFFFFFFFFFF1C00000000F6FFFFE3
:1035E000FF9D6776D9FFFFFFCF01000040FFFFFF7F
:1035F0004C00000000B3FFFFFF090000D1FFFF9F58
:10360000000000000000F8FFFF4F0000F6FFFF0A77
:1036100000000000000090FFFFAF0000FBFFFF0272
:1036200000000000000010FEFFFF0100FFFFCF00C0
:1036300000000000000000F9FFFF0320FFFFAF00C3
:1036400000000000000000F7FFFF0530FFFFAF00A3
:1036500000000000000000F6FFFF0630FFFFDF0063
:1036600000000000000000F7FFFF0410FFFFFF0351
:1036700000000000000000F9FFFF0100FDFFFF0C4B
:1036800000000000000000FDFFCF0000F8FFFFAFCA
:1036900000000000000030FFFF6F0000E1FFFFFFAF
:1036A0003C0000000000B0FFFF0D000050FFFFFFD6
:1036B000FF2900000000F7FFFF03000000F6FFFFF6
:1036C000FFFF4B000070FFFF6F0000000040FEFF97
:1036D000FFFFFF8D13F9FFFF060000000000A1FFB0
:1036E000FFFFFFFFEFFFFF3C00000000000000FABB
:1036F000FFFFFFFFFFFF7F00000000000000D5FF7D
:10370000FFFEFFFFFFFFFF19000000000090FFFF1A
:103710006E40EAFFFFFFFFEF0600000010FBFFDF37
:10372000020010B5FFFFFFFFAF010000B0FFFF2E4A
:103730000000000082FEFFFFFF1B0000F7FFFF05F7
:10374000000000000091FFFFFFAF0020FEFFBF0060
:10375000000000000000E4FFFFFF0580FFFF4F00B6
:1037600000000000000020FEFFFF0CE0FFFF0D0046
:1037700000000000000000F5FFFF2FF2FFFF0A002D
:1037800000000000000000D0FFFF5FF5FFFF080011
:1037900000000000000000A0FFFF7FF6FFFF080010
:1037A0000000000000000080FFFF8FF6FFFF09000F
:1037B0000000000000000070FFFF8FF5FFFF0B000E
:1037C0000000000000000090FFFF7FF3FFFF1F00DC
:1037D00000000000000000B0FFFF4FE0FFFF6F009F
:1037E00000000000000000F1FFFF1F90FFFFEF014D
:1037F00000000000000000F8FFFF0A30FFFFFF0B91
:1038000000000000000040FFFFFF0300F9FFFFBFC2
:10381000010000000000E4FFFF9F0000D1FFFFFF58
:103820007E01000000A3FFFFFF1C000020FEFFFF41
:10383000FFBF7876D9FFFFFFCF01000000C2FFFF76
:10384000FFFFFFFFFFFFFFFF1A0000000000F8FF6F
:10385000FFFFFFFFFFFFFF6E00000000000020E8F9
:10386000FFFFFFFFFFFF7D010000000000000010D0
:1038700074CBEDDFBC37000000000000000000004A
:1038800051B9CCAB5801000000000000000000B4AA
:10389000FFFFFFFFFFBF0300000000000000B2FFBA
:1038A000FFFFFFFFFFFFBF02000000000050FEFF10
:1038B000FFFFFFFFFFFFFF4E0000000000F6FFFFCD
:1038C000FFFFFFFFFFFFFFFF0500000050FFFFFFAE
:1038D000BF360141D8FFFFFF3F000000E2FFFFDFDE
:1038E0000400000000F7FFFFDF010000FBFFFF1CEA
:1038F000000000000040FFFFFF070040FFFFEF0255
:10390000000000000000F5FFFF1E00A0FFFF7F0089
:10391000000000000000A0FFFF7F00F1FFFF1E007D
:1039200000000000000030FFFFDF00F4FFFF0B008D
:1039300000000000000000FCFFFF02F7FFFF07008F
:1039400000000000000000F7FFFF06F9FFFF06007F
:1039500000000000000000F3FFFF09FAFFFF040071
:1039600000000000000000F1FFFF0CFAFFFF05005F
:1039700000000000000000E0FFFF0EFAFFFF06005D
:1039800000000000000000C0FFFF0FF8FFFF07006D
:1039900000000000000000C0FFFF1FF6FFFF0B004B
:1039A00000000000000000B0FFFF2FF3FFFF1F002A
:1039B00000000000000000B0FFFF2FE0FFFF9F00AD
:1039C00000000000000000C0FFFF3F80FFFFFF0677
:1039D00000000000000000D0FFFF2F10FEFFFF8F4F
:1039E00001000000000061FDFFFF2F00F6FFFFFF58
:1039F0007D03000030A6FFFFFFFF1F00A0FFFFFFB9
:103A0000FFFFDEEDFFFFFFFFFFFF0F0000F9FFFFED
:103A1000FFFFFFFFFFFFFFFFFFFF0E000060FEFF45
:103A2000FFFFFFFFFFFFCFE4FFFF0C00000091FE50
:103A3000FFFFFFFFFFBF05F2FFFF0900000000517D
:103A4000B9EDEFCD690200F4FFFF070000000000B0
:103A500000000000000000F7FFFF0300000000006E
:103A600000000000000000FBFFEF0000000000006D
:103A700000000000000010FFFFAF00000000000089
:103A800000000000000060FFFF5F00000000000079
:103A9000000000000000D0FFFF1E0000000000003A
:103AA000000000000000F6FFFF0900000000000019
:103AB000000000000020FEFFFF02000000000000E8
:103AC0000000000000C0FFFF9F0000000000000099
:103AD0000000000010FBFFFF1E00000000000000BF
:103AE00000000000D2FFFFFF0400000000220000E1
:103AF00000000092FFFFFF7F0000000000F77B2422
:103B00002254C8FFFFFFFF080000000000F7FFFF7E
:103B1000FFFFFFFFFFFF7F000000000000F7FFFF37
:103B2000FFFFFFFFFFDF04000000000000F7FFFFC2
:103B3000FFFFFFFFEF1800000000000000F7FFFF8D
:103B4000FFFFFFDF17000000000000000092DCFE16
:103B5000EFBD690200000000000000FDFFFF2FFD27
:103B6000FFFF2FFDFFFF2FFDFFFF2FFDFFFF2FFDAD
:103B7000FFFF2FFDFFFF2FFDFFFF2F767777170049
:103B80000000000000000000000000000000000035
:103B90000000000000000000000000000000000025
:103BA0000000000000000000000000000000000015
:103BB000000000000000000000000076777717FD8D
:103BC000FFFF2FFDFFFF2FFDFFFF2FFDFFFF2FFD4D
:103BD000FFFF2FFDFFFF2FFDFFFF2FFDFFFF2F003A
:103BE0000076777717000000FDFFFF2F000000FD33
:103BF000FFFF2F000000FDFFFF2F000000FDFFFF73
:103C00002F000000FDFFFF2F000000FDFFFF2F0031
:103C10000000FDFFFF2F000000FDFFFF2F00000050
:103C20000000000000000000000000000000000094
:103C30000000000000000000000000000000000084
:103C40000000000000000000000000000000000074
:103C50000000000000000000000000000000000064
:103C60000000000000000000000000000000000054
:103C70000000000000000000000000000000000044
:103C80000000000000000000000000000000000034
:103C900030DDDDDD1D000080FFFFFF0B0000C0FFF9
:103CA000FFFF040000F1FFFFDF000000F5FFFF6FE2
:103CB000000000F9FFFF1E000000FDFFFF090000EB
:103CC00010FFFFFF02000050FFFFBF00000090FF49
:103CD000FF4F000000D0FFFF0D000000F2FFFF06C5
:103CE000000000F6FFEF01000000FAFF9F00000057
:103CF00000FEFF2F00000030FFFF0B00000070FFF0
:103D0000FF04000000B0FFDF00000000F0FF7F00B4
:103D10000000008188180000000000000000000082
:103D20000000000000000000000010010000000082
:103D3000000000000000000000000020E804000077
:103D400000000000000000000000000030FAFF0446
:103D50000000000000000000000000000040FBFF29
:103D6000FF0400000000000000000000000060FDF3
:103D7000FFFFFF04000000000000000000000071D1
:103D8000FEFFFFFFFF040000000000000000000035
:103D900092FFFFFFFFFF5C0000000000000000003A
:103DA00000B4FFFFFFFFFF3A00000000000000002A
:103DB0000000C5FFFFFFFFEF28000000000000002B
:103DC000000010D7FFFFFFFFDF160000000000001B
:103DD00000000020E8FFFFFFFFBF0400000000001C
:103DE0000000000030FAFFFFFFFF9E02000000000D
:103DF000000000000050FBFFFFFFFF7D01000000FE
:103E000000000000000061FDFFFFFFFF5C000000FC
:103E10000000000000000081FEFFFFFFFF3A0000ED
:103E2000000000000000000092FFFFFFFFEF2800ED
:103E300000000000000000000000F8FFFFFFDF1698
:103E4000000000000000000000000000F8FFFFEF8D
:103E50000500000000000000000000000000F8FF66
:103E6000FFFF7D01000000000000000000000000D6
:103E7000E6FFFFFFFF9E02000000000000000000C0
:103E8000000010D7FFFFFFFFBF040000000000008C
:103E9000000000000000C5FFFFFFFFDF160000006C
:103EA000000000000000000000B4FFFFFFFFEF284B
:103EB00000000000000000000000000092FFFFFF73
:103EC000FFFF3A0000000000000000000000008139
:103ED000FEFFFFFFFF5C000000000000000000008C
:103EE000000060FDFFFFFFFF7D01000000000000FB
:103EF000000000000040FBFFFFFFFF9E02000000EB
:103F0000000000000000000030FAFFFFFFFFAF04D8
:103F1000000000000000000000000020E8FFFFFF9C
:103F2000FFCF06000000000000000000000010D7D6
:103F3000FFFFFFFFEF020000000000000000000094
:103F40000000C5FFFFFFFF040000000000000000AC
:103F50000000000000A4FFFFFF04000000000000BC
:103F6000000000000000000092FEFF0400000000BE
:103F7000000000000000000000000071FE040000CE
:103F800000000000000000000000000000006002CF
:103F9000FCFFFFFFFFFFFFFFFFFFFFFFFFFFFFFF34
:103FA000FF0EFCFFFFFFFFFFFFFFFFFFFFFFFFFF15
:103FB000FFFFFF0EFCFFFFFFFFFFFFFFFFFFFFFF05
:103FC000FFFFFFFFFF0EFCFFFFFFFFFFFFFFFFFFF5
:103FD000FFFFFFFFFFFFFF0EB9BBBBBBBBBBBBBB04
:103FE000BBBBBBBBBBBBBBBBBB0A00000000000034
:103FF00000000000000000000000000000000000C1
:1040000000000000000000000000000000000000B0
:1040100000000000000000000000000000000000A0
:104020000000000000000000000000000000000090
:104030000000000000000000000000000000000080
:104040000000000000000000000000000000000070
:104050000000000000000000000000000000000060
:104060000000000000000000B9BBBBBBBBBBBBBB7A
:10407000BBBBBBBBBBBBBBBBBB0AFCFFFFFFFFFFAC
:10408000FFFFFFFFFFFFFFFFFFFFFF0EFCFFFFFF34
:10409000FFFFFFFFFFFFFFFFFFFFFFFFFF0EFCFF24
:1040A000FFFFFFFFFFFFFFFFFFFFFFFFFFFFFF0E11
:1040B000FCFFFFFFFFFFFFFFFFFFFFFFFFFFFFFF13
:1040C000FF0E1100000000000000000000000000D2
:1040D00000000000E22900000000000000000000D5
:1040E000000000000000F2FF4A0000000000000095
:1040F0000000000000000000F2FFFF5C0000000074
:1041000000000000000000000000F2FFFFFF7D0142
:10411000000000000000000000000000F2FFFFFFB0
:10412000FF8E02000000000000000000000040FBC5
:10413000FFFFFFFFAF0300000000000000000000D1
:104140000020E9FFFFFFFFBF0400000000000000A7
:104150000000000010D7FFFFFFFFDF060000000097
:104160000000000000000000C5FFFFFFFFEF170088
:104170000000000000000000000000A3FFFFFFFFA0
:10418000FF2900000000000000000000000082FE87
:10419000FFFFFFFF4B0000000000000000000000D8
:1041A0000061FDFFFFFFFF5C000000000000000059
:1041B0000000000040FBFFFFFFFF7D01000000004A
:1041C0000000000000000030F9FFFFFFFF8E02003A
:1041D0000000000000000000000010E7FFFFFFFFEC
:1041E000AF03000000000000000000000000C6FF58
:1041F000FFFFFF0A000000000000000000000000B8
:1042000000D4FFFFFF0A00000000000000000000D3
:10421000000061FDFFFFFF0A000000000000000039
:1042200000000082FEFFFFFFFF070000000000000B
:1042300000000000A3FFFFFFFFEF180000000000D8
:104240000000000000C5FFFFFFFFDF0600000000C8
:10425000000000000010D7FFFFFFFFBF04000000B8
:1042600000000000000020E9FFFFFFFFAF03000097
:104270000000000000000040FBFFFFFFFF8E020077
:10428000000000000000000061FDFFFFFFFF7D0156
:1042900000000000000000000082FEFFFFFFFF5C46
:1042A00000000000000000000000A3FFFFFFFFFF70
:1042B0004A00000000000000000000C5FFFFFFFFF3
:1042C000EF2900000000000000000000D1FFFFFF08
:1042D000FFEF170000000000000000000000F2FFE8
:1042E000FFFFDF06000000000000000000000000EB
:1042F000F2FFFFBF0400000000000000000000000B
:104300000000F2FFAF03000000000000000000000A
:1043100000000000F28E020000000000000000001B
:10432000000000000000610100000000000000002B
:10433000000000000000000000004197DCFEDEAC41
:10434000370000000030C8FFFFFFFFFFFFFF6C00D9
:104350000000F5FFFFFFFFFFFFFFFFFF2B0000F551
:10436000FFFFFFFFFFFFFFFFFFEF0300F5FFFFFF72
:10437000FFFFFFFFFFFFFF3E00F5FFFF8C351242FE
:10438000C7FFFFFFCF00F5CF160000000000D4FFED
:10439000FFFF06C50400000000000020FDFFFF0C29
:1043A000000000000000000000F4FFFF1F000000FC
:1043B000000000000000D0FFFF4F000000000000E0
:1043C000000000A0FFFF5F000000000000000000F0
:1043D00080FFFF6F00000000000000000090FFFF62
:1043E0006F000000000000000000B0FFFF4F000061
:1043F00000000000000000E0FFFF1F0000000000C0
:1044000000000000F5FFFF0B0000000000000000AE
:1044100010FDFFFF05000000000000000090FFFFFE
:10442000CF000000000000000000F8FFFF4F000078
:1044300000000000000090FFFFFF070000000000E8
:10444000000020FBFFFF9F0000000000000000E6CE
:10445000FFFFFF0800000000000000C4FFFFFF6F27
:1044600000000000000000A2FFFFFFDF03000000CB
:1044700000000000FCFFFFFF19000000000000002A
:1044800000FDFFFF3C000000000000000000FDFFF9
:104490009F00000000000000000000FDFF6F000012
:1044A0000000000000000000FDFF6F0000000000A1
:1044B0000000000000FDFF6F000000000000000091
:1044C0000000FDFF6F00000000000000000000FD84
:1044D000FF6F00000000000000000000FDFF6F0003
:1044E0000000000000000000002222120000000076
:1044F00000000000000000000000000000000000BC
:1045000000000000000000000000000000000000AB
:10451000000000000000000000000000000000009B
:1045200000000000000000000000444434000000CF
:1045300000000000000020FFFFDF0000000000007E
:1045400000000020FFFFDF0000000000000000006E
:1045500020FFFFDF00000000000000000020FFFF40
:10456000DF00000000000000000020FFFFDF00006F
:104570000000000000000020FFFFDF00000000003E
:104580000000000000000000000041A8ECFEEEBDAD
:1045900069020000000000000000000000000000B0
:1045A0000010B5FFFFFFFFFFFFFFEF380000000026
:1045B00000000000000000000010E7FFFFFFFFFF09
:1045C000FFFFFFFFFF4C00000000000000000000A4
:1045D0000000E6FFFFFFFFFFFFFFFFFFFFFFFF2BD6
:1045E00000000000000000000000C2FFFFFFDF59D4
:1045F00013011153B7FEFFFFFF060000000000008B
:10460000000050FEFFFF8E0200000000000051FB82
:10461000FFFFAF0000000000000000F7FFFF7E0179
:10462000000000000000000030FBFFFF0B00000056
:1046300000000080FFFFAF0200000000000000004B
:10464000000050FEFFAF000000000000F6FFFF0674
:10465000000000000000000000000000D2FFFF0882
:104660000000000040FFFF4E0000000000000000BE
:10467000000000000020FDFF4F00000000E1FFFFF0
:10468000040000000000000000000000000000E244
:10469000FFDF01000000FAFF5F00000000000000E3
:1046A000000000000000000040FFFF07000040FF86
:1046B000FF080000000000A5ECEF9C0530777701B3
:1046C0000000F9FF1E0000D0FFDF0000000000E541
:1046D000FFFFFFFFEF88FFFF030000E1FF6F000017
:1046E000F5FF4F00000000B1FFFFFFFFFFFFFFFFDE
:1046F000FF03000080FFCF0000FCFF0B0000001054
:10470000FCFFFFFFFFFFFFFFFFFF03000020FFFF95
:104710000320FFFF04000000B0FFFFFF8C67A7FD30
:10472000FFFFFF03000000FBFF0880FFDF00000029
:1047300000F7FFFF3B00000030E9FFFF030000002F
:10474000F6FF0CC0FF7F00000020FFFFAF0000005D
:10475000000080FFFF03000000F2FF0FF1FF3F00A9
:10476000000090FFFF0C000000000080FFFF03002E
:104770000000D0FF3FF5FF0E000000E1FFFF030047
:104780000000000080FFFF03000000A0FF6FF7FFA4
:104790000B000000F4FFCF00000000000080FFFFCE
:1047A0000300000080FF8FF9FF08000000F8FF7F82
:1047B00000000000000080FFFF0300000060FF9F7A
:1047C000FBFF06000000FBFF4F0000000000008020
:1047D000FFFF0300000050FFAFFCFF05000000FDDD
:1047E000FF1F00000000000080FFFF0300000040EA
:1047F000FFBFFCFF05000000FEFF0F0000000000EF
:104800000080FFFF0300000030FFCFFCFF0400002A
:1048100000FFFF0F00000000000080FFFF0300000A
:104820000040FFBFFCFF05000000FEFF0F0000007E
:1048300000000080FFFF0300000040FFBFFBFF06F9
:10484000000000FEFF1F00000000000080FFFF03CB
:1048500000000050FFAFFAFF08000000FDFF3F001E
:10486000000000000080FFFF0300000070FF8FF8D1
:10487000FF09000000FBFF5F00000000000080FF58
:10488000FF0300000090FF6FF6FF0C000000F8FF30
:104890009F00000000000080FFFF03000000B0FF49
:1048A0003FF2FF1F000000F5FFEF000000000000D6
:1048B00080FFFF03000000E0FF0EE0FF5F0000004C
:1048C000E1FFFF070000000000C1FFFF0300000040
:1048D000F2FF0AA0FF9F00000090FFFF3E000000D3
:1048E0000060FEFFFF03000000F6FF0550FFEF0130
:1048F000000020FFFFEF17000061FCFFFFFF030037
:104900000000FBEF0010FEFF06000000F8FFFFEFC5
:10491000ABCAFFFFFFFFFF03000020FF9F0000F96D
:10492000FF0D000000B0FFFFFFFFFFFFFFCFFFFF05
:10493000464444A4FF3F0000F2FF7F00000010FC4B
:10494000FFFFFFFFFFDF44FFFFFFFFFFFFFF0A0046
:104950000090FFEF0200000080FFFFFFFFEF171045
:10496000FFFFFFFFFFFFEF02000010FEFF0C000043
:10497000000072DBEFAD160000FCFFFFFFFFFF8FB2
:1049800000000000F6FFAF00000000000000000083
:1049900000000000000000000000000000A0FFFF79
:1049A00009000000000000000000000000000000FE
:1049B00000000000000010FDFFAF0100000000003B
:1049C00000000000000000000000000000000000E7
:1049D000D2FFFF3D000000000000000000000000CA
:1049E00000000000000000000020FDFFFF19000093
:1049F00000000000000000000000000000000000B7
:104A0000000000B1FFFFFF490000000000000000AF
:104A100020000000000000000000000000F8FFFF80
:104A2000FF9D360100002163B8BE000000000000B9
:104A300000000000000030FBFFFFFFFFFFEEFEFF65
:104A4000FFFFBF00000000000000000000000000A9
:104A500040FBFFFFFFFFFFFFFFFFFFBF0000000065
:104A60000000000000000000000030D8FFFFFFFF42
:104A7000FFFFFFFFBF00000000000000000000007B
:104A8000000000000062B9EDFEEECDAC680300004E
:104A900000000000000000000000000000F8FFFF20
:104AA000FF080000000000000000000000000000FF
:104AB0000000FDFFFFFF0D000000000000000000EF
:104AC00000000000000040FFFFFFFF4F000000005B
:104AD000000000000000000000000090FFFFFFFF4A
:104AE0009F00000000000000000000000000000027
:104AF000E0FFFFFFFFEF00000000000000000000EB
:104B00000000000000F5FFFFFBFFFF0500000000B4
:104B100000000000000000000000FAFFDFF3FFFFCC
:104B20000A0000000000000000000000000010FF6C
:104B3000FF8FC0FFFF1F000000000000000000000A
:104B400000000060FFFF3F70FFFF6F0000000000EB
:104B50000000000000000000B0FFFF0C20FFFFBFBE
:104B600000000000000000000000000000F2FFFF55
:104B70000700FCFFFF020000000000000000000032
:104B80000000F7FFFF0200F6FFFF07000000000033
:104B900000000000000000FCFFCF0000F1FFFF0C50
:104BA000000000000000000000000030FFFF6F0068
:104BB00000B0FFFF3F000000000000000000000008
:104BC00080FFFF1F000050FFFF8F0000000000006B
:104BD0000000000000D0FFFF0B000010FEFFDF0010
:104BE00000000000000000000000F4FFFF050000CE
:104BF00000FAFFFF0400000000000000000000F9C0
:104C0000FFEF01000000F5FFFF09000000000000B9
:104C100000000000FEFFAF00000000E0FFFF0E00FC
:104C2000000000000000000050FFFF5F00000000D7
:104C300090FFFF5F000000000000000000A0FFFFE9
:104C40000E0000000040FFFFAF0000000000000069
:104C50000000F1FFFF090000000000FDFFFF010060
:104C600000000000000000F6FFFF0400000000004C
:104C7000F8FFFF060000000000000000FBFFDF005F
:104C80000000000000F3FFFF0B0000000000000028
:104C900020FFFF8F000000000000D0FFFF2F00006A
:104CA000000000000070FFFF3F00000000000070E7
:104CB000FFFF7F00000000000000C0FFFF1D11117A
:104CC0001111111131FFFFCF00000000000000F3AF
:104CD000FFFFFFFFFFFFFFFFFFFFFFFFFF030000DE
:104CE00000000000F8FFFFFFFFFFFFFFFFFFFFFFD7
:104CF000FFFF08000000000000FDFFFFFFFFFFFFB7
:104D0000FFFFFFFFFFFFFF0D000000000040FFFF5F
:104D1000FFFFFFFFFFFFFFFFFFFFFFFF4F00000050
:104D2000000090FFFFFFFFFFFFFFFFFFFFFFFFFF00
:104D3000FF9F0000000000E0FFFF0B0000000000EC
:104D400000000010FFFFEF0000000000F5FFFF066D
:104D5000000000000000000000FAFFFF0500000056
:104D600000FAFFFF01000000000000000000F5FF56
:104D7000FF0A00000010FFFFBF000000000000005D
:104D8000000000E1FFFF1F00000060FFFF6F000058
:104D90000000000000000000A0FFFF6F000000B056
:104DA000FFFF1F0000000000000000000050FFFF98
:104DB000BF000000F2FFFF0B000000000000000039
:104DC000000000FEFFFF020000F7FFFF05000000EB
:104DD0000000000000000000FAFFFF070000FCFFD9
:104DE000FF010000000000000000000000F4FFFFD1
:104DF0000C0020FFFFAF00000000000000000000DA
:104E00000000E0FFFF3F0080FFFF5F0000000000A8
:104E10000000000000000090FFFF8F00D0FFFF1E89
:104E200000000000000000000000000040FFFFDF65
:104E300000818888060000000000000000000000DB
:104E4000000087888801F2FFFFFFFFFFFFFFEFCD23
:104E50008A140000000000F2FFFFFFFFFFFFFFFFCA
:104E6000FFFFEF2800000000F2FFFFFFFFFFFFFF42
:104E7000FFFFFFFFFF07000000F2FFFFFFFFFFFF44
:104E8000FFFFFFFFFFFFAF000000F2FFFFFFFFFF8C
:104E9000FFFFFFFFFFFFFFFF080000F2FFFF0A0018
:104EA0000000102163FAFFFFFF2F0000F2FFFF0A4E
:104EB00000000000000020FBFFFF8F0000F2FFFF5A
:104EC0000A00000000000000D1FFFFCF0000F2FF49
:104ED000FF0A0000000000000060FFFFEF0000F28A
:104EE000FFFF0A0000000000000020FFFFFF00009D
:104EF000F2FFFF0A0000000000000000FFFFFF00BB
:104F000000F2FFFF0A0000000000000010FFFFEFAA
:104F10000000F2FFFF0A0000000000000020FFFF79
:104F2000BF0000F2FFFF0A0000000000000060FF69
:104F3000FF7F0000F2FFFF0A00000000000000B049
:104F4000FFFF1E0000F2FFFF0A000000000000004B
:104F5000F6FFFF060000F2FFFF0A0000000000005D
:104F600081FFFF9F000000F2FFFF0A000000002108
:104F700094FEFFFF08000000F2FFFFFFFFFFFFFFAE
:104F8000FFFFFFFF4D00000000F2FFFFFFFFFFFFEC
:104F9000FFFFFFFFFF6B01000000F2FFFFFFFFFFBD
:104FA000FFFFFFFFFFFFFF9F020000F2FFFFFFFF79
:104FB000FFFFFFFFFFFFFFFFFF6E0000F2FFFFEFAD
:104FC000EEEEEEEEFFFFFFFFFFFFFF0800F2FFFF38
:104FD0000A00000000001053D8FFFFFF7F00F2FF1F
:104FE000FF0A0000000000000000E6FFFFFF03F2E0
:104FF000FFFF0A000000000000000020FDFFFF0A84
:10500000F2FFFF0A000000000000000000F3FFFFB5
:105010002FF2FFFF0A000000000000000000C0FFA8
:10502000FF6FF2FFFF0A0000000000000000008098
:10503000FFFF9FF2FFFF0A000000000000000000D9
:1050400050FFFFAFF2FFFF0A000000000000000069
:105050000040FFFFBFF2FFFF0A0000000000000059
:10506000000050FFFFBFF2FFFF0A00000000000039
:1050700000000060FFFFAFF2FFFF0A000000000029
:1050800000000000A0FFFF7FF2FFFF0A0000000009
:105090000000000000E1FFFF3FF2FFFF0A000000F8
:1050A000000000000000FAFFFF0DF2FFFF0A000001
:1050B00000000000000090FFFFFF06F2FFFF0A0063
:1050C00000000000000040FCFFFFCF00F2FFFF0ADD
:1050D00000000000114296FDFFFFFF3E00F2FFFFBF
:1050E000FFFFFFFFFFFFFFFFFFFFFFEF0400F2FFE7
:1050F000FFFFFFFFFFFFFFFFFFFFFFFF3D0000F28D
:10510000FFFFFFFFFFFFFFFFFFFFFFFF9F0100000B
:10511000F2FFFFFFFFFFFFFFFFFFFFFF9E02000008
:1051200000F2FFFFFFFFFFFFFFFFDEAC47000000C4
:1051300000000000000000000040A7ECFEDEBC689C
:105140000300000000000000000000A4FEFFFFFFBD
:10515000FFFFFFEF4A0000000000000000C4FFFF57
:10516000FFFFFFFFFFFFFFFF8E020000000000A116
:10517000FFFFFFFFFFFFFFFFFFFFFFFF9F0200009A
:105180000030FDFFFFFFFFFFFFFFFFFFFFFFFFFFFF
:1051900008000000E4FFFFFFFF7B24012164EAFF19
:1051A000FFFFFF08000030FFFFFFFF1800000000B6
:1051B0000000A4FFFFFF080000E2FFFFFF2C00003B
:1051C000000000000000A2FFFF080000FBFFFFAF8F
:1051D00000000000000000000000D3FF080060FF96
:1051E000FFFF0A0000000000000000000010F908A6
:1051F00000D0FFFFDF010000000000000000000001
:1052000000600700F6FFFF3F000000000000000004
:1052100000000000000000FCFFFF0A00000000008A
:1052200000000000000000000030FFFFFF0300004E
:1052300000000000000000000000000070FFFFCF31
:10524000000000000000000000000000000000C09E
:10525000FFFF7F00000000000000000000000000D1
:105260000000E0FFFF2F0000000000000000000031
:105270000000000000F3FFFF0E000000000000002F
:105280000000000000000000F5FFFF0B0000000020
:105290000000000000000000000000F7FFFF090010
:1052A0000000000000000000000000000000F8FF07
:1052B000FF080000000000000000000000000000E7
:1052C00000F9FFFF070000000000000000000000E0
:1052D00000000000F9FFFF060000000000000000D1
:1052E00000000000000000F9FFFF060000000000C1
:1052F00000000000000000000000F9FFFF070000B0
:1053000000000000000000000000000000F8FFFFA7
:105310000800000000000000000000000000000085
:10532000F7FFFF090000000000000000000000007F
:10533000000000F5FFFF0B0000000000000000006F
:10534000000000000000F3FFFF0E0000000000005E
:10535000000000000000000000F1FFFF2F0000002F
:10536000000000000000000000000000C0FFFF7F00
:10537000000000000000000000000000000000909D
:10538000FFFFCF0000000000000000000000000050
:10539000000040FFFFFF03000000000000000000CD
:1053A000000000000000FEFFFF0B000000000000F6
:1053B000000000000000000000F8FFFF4F000000A8
:1053C000000000000000000000000000E2FFFFDF1E
:1053D00001000000000000000000000060070080E5
:1053E000FFFFFF0B0000000000000000000000F8BD
:1053F000080010FDFFFFBF010000000000000000DA
:1054000000C3FF080000F4FFFFFF3D0000000000A4
:1054100000000092FFFF08000070FFFFFFFF3A004E
:105420000000000000A4FFFFFF08000000F8FFFFDD
:10543000FFFF8C35112274EAFFFFFFFF0800000018
:1054400070FFFFFFFFFFFFFFFFFFFFFFFFFFFF08F2
:1054500000000000D4FFFFFFFFFFFFFFFFFFFFFF83
:10546000FF7E010000000010E7FFFFFFFFFFFFFFCE
:10547000FFFFFF6C0000000000000010C6FFFFFFF0
:10548000FFFFFFFFDF380000000000000000000009
:1054900051A8ECFEEFBD590200000000F2FFFFFF33
:1054A000FFFFFFEFCD8A360000000000000000F291
:1054B000FFFFFFFFFFFFFFFFFFFFAE040000000044
:1054C0000000F2FFFFFFFFFFFFFFFFFFFFFFEF17EF
:1054D0000000000000F2FFFFFFFFFFFFFFFFFFFFE4
:1054E000FFFFEF0500000000F2FFFFFFFFFFFFFFDF
:1054F000FFFFFFFFFFFFAF01000000F2FFFF0A0008
:1055000000002153B7FEFFFFFFFF1C000000F2FF69
:10551000FF0A00000000000040FAFFFFFFDF02006A
:1055200000F2FFFF0A0000000000000020FAFFFF69
:10553000FF1C0000F2FFFF0A000000000000000056
:1055400040FEFFFFAF0000F2FFFF0A000000000076
:1055500000000000D2FFFFFF0500F2FFFF0A00007D
:105560000000000000000020FEFFFF1D00F2FFFF12
:105570000A00000000000000000000F3FFFF7F00B1
:10558000F2FFFF0A0000000000000000000090FF92
:10559000FFDF00F2FFFF0A00000000000000000033
:1055A0000010FEFFFF05F2FFFF0A000000000000F0
:1055B0000000000000F9FFFF0AF2FFFF0A000000F0
:1055C0000000000000000000F4FFFF0EF2FFFF0AE1
:1055D0000000000000000000000000E0FFFF2FF2CC
:1055E000FFFF0A0000000000000000000000B0FF04
:1055F000FF5FF2FFFF0A0000000000000000000053
:105600000090FFFF7FF2FFFF0A0000000000000093
:105610000000000070FFFF9FF2FFFF0A0000000083
:105620000000000000000060FFFFAFF2FFFF0A0073
:105630000000000000000000000050FFFFAFF2FF7C
:10564000FF0A000000000000000000000060FFFFF3
:10565000AFF2FFFF0A0000000000000000000000A1
:1056600060FFFFAFF2FFFF0A000000000000000033
:1056700000000070FFFF9FF2FFFF0A000000000023
:1056800000000000000090FFFF7FF2FFFF0A000013
:10569000000000000000000000B0FFFF4FF2FFFF1D
:1056A0000A0000000000000000000000E0FFFF2FE3
:1056B000F2FFFF0A0000000000000000000000F3FD
:1056C000FFFF0DF2FFFF0A000000000000000000D5
:1056D0000000F9FFFF08F2FFFF0A000000000000D1
:1056E0000000000010FEFFFF03F2FFFF0A000000B1
:1056F0000000000000000080FFFFBF00F2FFFF0A73
:1057000000000000000000000000F3FFFF5F00F257
:10571000FFFF0A00000000000000000010FDFFFF76
:105720000C00F2FFFF0A000000000000000000C1B2
:10573000FFFFFF0300F2FFFF0A000000000000006F
:105740000040FDFFFF7F0000F2FFFF0A00000000A5
:1057500000000010F9FFFFFF0A0000F2FFFF0A003F
:10576000000000000030E9FFFFFFCF010000F2FF62
:10577000FF0A0000112154A7FEFFFFFFFF1B0000DE
:1057800000F2FFFFFFFFFFFFFFFFFFFFFFFFFF8FA5
:1057900000000000F2FFFFFFFFFFFFFFFFFFFFFF22
:1057A000FFDF0400000000F2FFFFFFFFFFFFFFFF2D
:1057B000FFFFFFDF060000000000F2FFFFFFFFFF1A
:1057C000FFFFFFFFFFAE04000000000000F2FFFF3C
:1057D000FFFFFFFFEECD8A35000000000000000053
:1057E000F2FFFFFFFFFFFFFFFFFFFFFFFFFF9FF243
:1057F000FFFFFFFFFFFFFFFFFFFFFFFFFF9FF2FF26
:10580000FFFFFFFFFFFFFFFFFFFFFFFF9FF2FFFF15
:10581000FFFFFFFFFFFFFFFFFFFFFF9FF2FFFFFF05
:10582000FFFFFFFFFFFFFFFFFFFF9FF2FFFF3B3385
:1058300033333333333333333323F2FFFF0A000080
:10584000000000000000000000F2FFFF0A0000005E
:105850000000000000000000F2FFFF0A000000004E
:1058600000000000000000F2FFFF0A00000000003E
:10587000000000000000F2FFFF0A0000000000002E
:105880000000000000F2FFFF0A000000000000001E
:1058900000000000F2FFFF0A00000000000000000E
:1058A000000000F2FFFF0A000000000000000000FE
:1058B0000000F2FFFF0A00000000000000000000EE
:1058C00000F2FFFF0A0000000000000000000000DE
:1058D000F2FFFF0A0000000000000000000000F2DC
:1058E000FFFFFFFFFFFFFFFFFFFFFFFFFF9FF2FF35
:1058F000FFFFFFFFFFFFFFFFFFFFFFFF9FF2FFFF25
:10590000FFFFFFFFFFFFFFFFFFFFFF9FF2FFFFFF14
:10591000FFFFFFFFFFFFFFFFFFFF9FF2FFFFFFFF04
:10592000FFFFFFFFFFFFFFFFFF9FF2FFFF3B333350
:10593000333333333333333323F2FFFF0A000000B2
:105940000000000000000000F2FFFF0A000000005D
:1059500000000000000000F2FFFF0A00000000004D
:10596000000000000000F2FFFF0A0000000000003D
:105970000000000000F2FFFF0A000000000000002D
:1059800000000000F2FFFF0A00000000000000001D
:10599000000000F2FFFF0A0000000000000000000D
:1059A0000000F2FFFF0A00000000000000000000FD
:1059B00000F2FFFF0A0000000000000000000000ED
:1059C000F2FFFF0A0000000000000000000000F2EB
:1059D000FFFF0A0000000000000000000000F2FFCE
:1059E000FF0A0000000000000000000000F2FFFFBE
:1059F0000A0000000000000000000000F2FFFF0AA3
:105A00000000000000000000000000F2FFFF0A009C
:105A100000000000000000000000F2FFFF3B3333F5
:105A2000333333333333333323F2FFFFFFFFFFFFCF
:105A3000FFFFFFFFFFFFFF9FF2FFFFFFFFFFFFFFE3
:105A4000FFFFFFFFFFFF9FF2FFFFFFFFFFFFFFFFD3
:105A5000FFFFFFFFFF9FF2FFFFFFFFFFFFFFFFFFC3
:105A6000FFFFFFFF9FF2FFFFFFFFFFFFFFFFFFFFB3
:105A7000FFFFFF9FF2FFFFFFFFFFFFFFFFFFFFFFA3
:105A8000FFFF0BF2FFFFFFFFFFFFFFFFFFFFFFFF27
:105A9000FF0BF2FFFFFFFFFFFFFFFFFFFFFFFFFF17
:105AA0000BF2FFFFFFFFFFFFFFFFFFFFFFFFFF0BFB
:105AB000F2FFFFFFFFFFFFFFFFFFFFFFFFFF0BF204
:105AC000FFFF3B3333333333333333333302F2FFAC
:105AD000FF0A0000000000000000000000F2FFFFCD
